:10000000C8C200000CC300000AC3000008C30000FF
:1000100006C3000004C300000C9401290C94342989
:100020000C9467290C949A29FAC20000F8C20000C7
:10003000F6C20000F4C200000C94DB2A0C94132BCF
:100040000C944B2B0C94832B0C94BB2B0C94F32B08
:100050000C942B2C0C94632C0C949B2C0C94D32C74
:10006000DEC20000DCC20000DAC20000D8C200001C
:10007000D6C20000D4C20000D2C20000D0C200002C
:10008000CEC20000CCC20000CAC20000C8C200003C
:10009000C6C20000C4C20000C2C20000C0C200004C
:1000A000BEC20000BCC20000BAC20000B8C200005C
:1000B000B6C20000B4C20000B2C200000C943B2FD4
:1000C0000C94732F0C94AB2F0C94E32F0C941B30D7
:1000D0000C945330A4C20000A2C20000A0C20000D1
:1000E0009EC200009CC200000C949D2798C2000094
:1000F00096C2000094C2000092C2000090C20000AC
:100100008EC200008CC200008AC2000088C20000BB
:1001100086C2000084C2000082C2000080C20000CB
:100120007EC200007CC200007AC2000078C20000DB
:1001300076C200000C940B2D0C94432D0C947B2D57
:100140000C94B32D0C94EB2D0C94232E0C945B2E5D
:100150000C94932E0C94CB2E0C94032F60C20000B1
:100160005EC200005CC200005AC2000058C200001B
:1001700056C2000054C2000052C2000050C200002B
:100180004EC200004CC200004AC2000048C200003B
:1001900046C2000044C2000042C2000040C200004B
:1001A0003EC200003CC200003AC2000038C200005B
:1001B00036C2000034C2000032C2000030C200006B
:1001C0002EC200002CC200002AC2000028C200007B
:1001D00026C2000024C2000022C2000020C200008B
:1001E0001EC200001CC200001AC2000018C200009B
:1001F00016C200000C94720C12C200000763423653
:10020000B79BD8A71A39685618AEBAAB558C1D3CA7
:10021000B7CC5763BD6DEDFD753EF6177231BF006B
:100220000000803F05A84CCDB2D44EB93836A902A3
:100230000C50B9918688083CA6AAAA2ABE000000E4
:10024000803F08000000BE922449123EABAAAA2AB1
:10025000BECDCCCC4C3E00000080BEABAAAAAA3ECC
:1002600000000000BF000000803F00000000000808
:100270004178D3BB4387D1133D190E3CC3BD4282A5
:10028000AD2B3E68EC8276BED98FE1A93E4C80EF63
:10029000FFBE01C4FF7F3F0000000000000000FF20
:1002A0000000FF1500FF2200FF2E00FF3B00FF446F
:1002B00000FF5000FF5D00FF6A00FF7700FF7F0036
:1002C000FF8C00FF9900FFA500FFB200FFBF00FFF9
:1002D000C700FFD400FFE100FFEE00FFFA00FAFFC5
:1002E00000EDFF00E1FF00D4FF00C7FF00BFFF00EB
:1002F000B2FF00A5FF0099FF008CFF007FFF007791
:10030000FF006AFF005DFF0050FF0043FF003BFF5E
:10031000002EFF0021FF0015FF0008FF0000FF0076
:1003200000FF0C00FF1900FF2600FF3300FF3F0015
:10033000FF4800FF5400FF6100FF6E00FF7B00FFDD
:100340008300FF9000FF9D00FFAA00FFB600FFBFE3
:1003500000FFCB00FFD800FFE500FFF200FFFF0029
:10036000F6FF00E9FF00DCFF00D0FF00C3FF00BB89
:10037000FF00AEFF00A1FF0094FF0087FF007FFF9A
:100380000072FF0066FF0059FF004CFF003FFF00B6
:1003900037FF002AFF001DFF0010FF0004FF0400CC
:1003A000FF1000FF1D00FF2A00FF3700FF3F00FF86
:1003B0004C00FF5900FF6600FF7200FF7F00FF87BF
:1003C00000FF9400FFA100FFAE00FFBA00FFC300D2
:1003D000FFD000FFDD00FFE900FFF600FFFF00FF98
:1003E000FF00F2FF00E5FF00D8FF00CCFF00BFFFD9
:1003F00000B6FF00A9FF009DFF0090FF0083FF00F3
:100400007BFF006EFF0061FF0055FF0048FF003FCB
:10041000FF0032FF0026FF00196EC86E00000000CA
:100420000000000000000000000000007F0000004D
:100430007F0000007F0000007F000000000000003F
:100440007F000000000000007F00000000000000AE
:10045000000000000055007F00007F007F00005575
:1004600000006400006E00007F0000001455007F53
:1004700000007F0000007F0000235555557F7F005E
:1004800000006E7F640000000055555555146E0045
:100490007F0A6414002D7F006E2D4B237F007F00A8
:1004A0007F006E7F007F007F7F007F007F007F7F67
:1004B0007F007F7F7F007F7F7F7F7F7F557F647F8F
:1004C000557F557F557F557F6E7F647F2A034D0092
:1004D0006900640069002000460069006700680048
:1004E00074006500720020005400770069007300FA
:1004F00074006500720000001C0344004A002000E4
:100500005400650063006800200054006F006F0015
:100510006C00730000000403090409026500020175
:1005200000C032090400000001010000092401009C
:100530000109000101090401000201030000072470
:10054000010001410006240201010006240202020A
:10055000000924030103010201000924030204012C
:100560000101000905010240000500000525010107
:100570000109058202400005000005250101031262
:1005800001100100000008802507000100010200A1
:10059000010011241FBECFEFDFE3DEBFCDBF00E0BF
:1005A0000CBF18BE19BE1ABE1BBE8091780083FF17
:1005B0001CC08091333890913438A0913538B09177
:1005C00036388A3C9C4AA244BC4D79F410923338A8
:1005D00010923438109235381092363881E08CBF42
:1005E000E0910020F0910120199510E2A0E0B0E226
:1005F000E6E1F4E800E00BBF02C007900D92A434DE
:10060000B107D9F71BBE28E3A4E4B0E201C01D92F4
:10061000A333B207E1F70E94A93C0C940942F0CC45
:100620008091820080FDFCCF08956091800062700F
:100630006160880F880F8C73682B80E890E00E94BF
:100640007F28EECF609180006C7F616080E890E051
:100650000C947F28609180006C73636080E890E068
:100660000E947F28DDCF63E080E890E00E947F2831
:10067000D7DF6BE281E890E00E947F28D1DFA89568
:10068000FFCF8F929F92AF92BF92CF92DF92EF9265
:10069000FF920F931F93CF93DF93CDB7DEB7CD5467
:1006A000D109CDBFDEBFFB01833008F441C1908189
:1006B000F180911162C0863008F43AC1FF2009F43C
:1006C00037C19281992309F433C1048110E090E08D
:1006D0000497081719070CF02BC14F2D50E09A0111
:1006E00021503109C90137FF02C0CA010E9654E0FA
:1006F000959587955A95E1F7F82EC90160E170E06C
:100700000E94A941682F9E012F5F3F4F8EE0D901C3
:100710001D928A95E9F7D9019E01215F3F4F80E83C
:100720008D93A217B307E1F7359690E001501109B8
:1007300015C0DF01A20FB31F2C912A502E3068F490
:10074000892F8F5FDF01A80FB11D8C91A1E0B0E070
:10075000AC0FBD1FA20FB11D8C939E5F292F30E0FF
:100760002017310734F3AE014F5F5F4F8F2D0E948A
:10077000721D0E94B833A895DBC0913009F0D8C033
:10078000EF2DF0E09F0121503109C90160E170E0D7
:100790000E94A94137FF03C09F01225F3F4F44E001
:1007A000359527954A95E1F7AE01405C5F4F682F7C
:1007B000822F0E94A21C8AE08CA321968FAD2197E4
:1007C0008DA38BE08EA322968FAD22978FA38CE012
:1007D00088A723968FAD239789A78DE08AA72496B3
:1007E0008FAD24978BA78EE08CA725968FAD25978C
:1007F0008DA78FE08EA71FA680E188AB27968FADCF
:10080000279789AB81E18AAB28968FAD28978BAB70
:1008100082E18CAB29968FAD29978DAB83E18EABAE
:100820002A968FAD2A978FAB84E188AF2B968FAD38
:100830002B9789AF85E18AAF2C968FAD2C978BAF24
:1008400086E18CAF2D968FAD2D978DAF87E18EAF62
:100850002E968FAD2E978FAF8F2D8150803410F450
:100860000CE101C000E0802F68E10E947C41E82E8D
:10087000E394C12CDD24D39480EFB82EAA24A39452
:1008800099E7992E24E0822E17EF802F093108F086
:1008900088E10851B9821A82AB829C828D821E82C5
:1008A000FF82D886E9868A871B871C871D871E875B
:1008B0001F87188B198B1A8B1B8B1C8B1D8B1E8B08
:1008C0001F8B188F198F1A8F1B8F1C8F1D8F1E8FD8
:1008D0001F8F18A319A31AA31BA39AE0282F30E097
:1008E000275F3F4F10C0A1E0B0E0AC0FBD1FA40FC9
:1008F000B51FE4E2F0E0EC0FFD1FEC0DF11D60818F
:100900006C93C3949F5F492F50E0241735075CF721
:10091000BE016F5F7F4F855F0E9430268091E63772
:100920009091E7371ED2A895D394ED1408F0ADCF7F
:10093000C35BDF4FCDBFDEBFDF91CF911F910F9122
:10094000FF90EF90DF90CF90BF90AF909F908F90EF
:100950000895A0E050E04150510911C0FB01E20FA1
:10096000F31F20812A3050F43A2F3F5FFB01E30F41
:10097000F11D3081FC01E20FF11D3083AE5F2A2FA3
:1009800030E02417350754F30895CF93DF93CDB7A4
:10099000DEB76B97CDBFDEBFF8940E944C1AFC0106
:1009A000789480EF89831A8281E08B8399E79C8316
:1009B00022E02D838E831F82909195219F5F9887DF
:1009C000898784858A872B8780818C8783E08D87C0
:1009D00082818E8784E08F878481888B85E0898BF4
:1009E00086818A8B86E08B8B80858C8B87E08D8BD4
:1009F00082858E8B88E08F8B8091C931888F89E0CA
:100A0000898F8091C3318A8F87EF8B8FBE016F5F93
:100A10007F4F8BE10E9430266B96CDBFDEBFDF910A
:100A2000CF910895882329F0FB018081811101C0B5
:100A3000ACCF0895CF93DF93CDB7DEB72D97CDBF61
:100A4000DEBFF89481E090E00E941A2A83E090E0F3
:100A50000E941A2A91E0811101C090E09D8784E0F4
:100A600090E00E941A2A89831A8285E090E00E9411
:100A70001A2A8B831C8286E090E00E941A2A8D83BA
:100A80001E8287E090E00E941A2A8F83188688E0F1
:100A900090E00E941A2A89871A8689E090E00E94D5
:100AA0001A2A8B871C868AE090E00E941A2A80937B
:100AB000C9318BE090E00E941A2A8093C331CE01A5
:100AC00001960E94231A78942D96CDBFDEBFDF9148
:100AD000CF910895CF93DF93CDB7DEB72D97CDBFDC
:100AE000DEBF6C877D878B87ADDDFE0131969AE096
:100AF000DF011D929A95E9F78B85482F6C857D85DE
:100B0000CF0127DF6981615081E090E00E94862A51
:100B10006A8183E090E00E94862A6B8184E090E005
:100B20000E94862A6C8185E090E00E94862A6D8171
:100B300086E090E00E94862A6E8187E090E00E9425
:100B4000862A6F8188E090E00E94862A688589E085
:100B500090E00E94862A69858AE090E00E94862AB9
:100B60006A858BE090E00E94862A60E07FEF80E05B
:100B700090E00E9462385EDF0E94F71C06DF0E9450
:100B800034212D96CDBFDEBFDF91CF910895F8942B
:100B900065E080E090E00E94862A60E081E090E0DD
:100BA0000E94862A61E083E090E00E94862A66E047
:100BB00084E090E00E94862A60E085E090E00E9458
:100BC000862A67E086E090E00E94862A66E087E059
:100BD00090E00E94862A60E088E090E00E94862AE9
:100BE00067E089E090E00E94862A6FE38AE090E067
:100BF0000E94862A6FE78BE090E00E94862A789414
:100C00000C94331E6AE675E081E00E94D91862E117
:100C100075E082E00E94D9186EE176E083E00E94E0
:100C2000D91861E473E084E00E94D91880E090E074
:100C30000E941A2A853009F0AACF0895882369F105
:100C4000FB018081813019F0823039F50CC0FADC6B
:100C5000D9D5FFEF2FE483ECF15020408040E1F73D
:100C600000C000001BC0EEDC92DF87E08093A20092
:100C70006FEF7FEF80E090E00E946238C3D59FEF76
:100C8000EFE4F3EC9150E040F040E1F700C00000E9
:100C900081E090E0CADCDEDCFFCF0895B3D5F894A4
:100CA00080E02FEF3FE891E0215030409040E1F7A5
:100CB00000C000008F5F8038A1F78AEC9CEAA2E4B4
:100CC000BCED8093333890933438A0933538B0938B
:100CD0003638C9CCCF93DF93EC011B8682E08C833E
:100CE000898761E0CE010196B8D4882331F061E0B4
:100CF000CE010696DF91CF91B0C480E0DF91CF9115
:100D000008950F931F93CF93DF931F92CDB7DEB754
:100D10008B012091DA312430E9F4FC018181ABD3DD
:100D200040E050E064E070E0C801C5D1811113C01B
:100D30002091E3313091E431F901EF5BFF4F4081C5
:100D4000F901E05CFF4F9081491728F089834DD36A
:100D5000898101C082E00F90DF91CF911F910F91A7
:100D600008952091DA312430F9F4FC01818183D394
:100D70008091E7312091E3313091E431F90187FF2F
:100D800005C0EF5BFF4F808190E00AC0E05CFF4F41
:100D90008081F901EF5BFF4F208190E0821B910978
:100DA000892B21F022D3EFC482E0089580E00895DA
:100DB000CF93DF93EC018091DA31843049F489815B
:100DC0005AD300D4882321F0CE01DF91CF91C9CF2F
:100DD000DF91CF910895CF93DF93EB012091DA312A
:100DE000243011F080E02AC0FC01868144D3D1D3A5
:100DF0008823C1F32091E3313091E431F901EF5BB5
:100E0000FF4F9081F901E05CFF4F8081981750F708
:100E100040E050E064E070E0CE01A0D18091E33189
:100E20009091E431FC01EF5BFF4F2081FC01E05C1D
:100E3000FF4F8081281708F0F1D281E0DF91CF9138
:100E400008950F931F93CF93DF93CDB7DEB7EC9741
:100E5000CDBFDEBF0BED11E3F0D2F80181938F011E
:100E6000F1E3033E1F07C1F70E945D3D79D388235C
:100E700009F402C18091DB319091DC31953009F4A5
:100E80007BC038F4913081F170F0933009F0F4C0F8
:100E90002BC0983009F4CDC0993009F4D2C09630F7
:100EA00009F0EAC07DC0803821F0823809F0E4C042
:100EB00006C08091D831811111C010E010C080911E
:100EC000DF318F70D8D2E091E531F091E6311181B8
:100ED00012FB112710F980E0CED201C012E014D32A
:100EE000812FBAD280E0AAC0882319F0823009F09D
:100EF000C3C08F7121F0823009F0BEC00BC0809159
:100F0000DD31813009F0B8C0933009F080E0809382
:100F1000D8312DC08091DD31811129C00091DF31A0
:100F20001091E0310F7011270115110509F4A4C0CB
:100F3000802FA1D28091DC31833011F4CAD217C046
:100F4000E091E531F091E63181818B7F818384E806
:100F5000809FF001819FF00D1124E75DFD4C108210
:100F6000E091E531F091E63180818E7F808380E0F1
:100F700082D2CAD2F1D380C081117EC01091DD31FE
:100F80001F77C2D2E9D31ED38823E9F31093C30499
:100F9000112311F083E001C082E08093DA316CC04C
:100FA0008058823008F068C08091DD319091DE3148
:100FB0008C3D23E0920761F583E08A838AE389838D
:100FC0004FB7F894DE01139620E038E052E05093DA
:100FD000CA01E32FF0E0E4911092CA0120FF03C0A0
:100FE000E295EF703F5FEF708E2F90E0EA3010F0E7
:100FF000C79601C0C0968D939D932F5F2C3139F712
:101000004FBF82D26AE370E0CE010196FAD00FC0E2
:10101000AE01455C5F4F6091DF310E949F328C01D1
:10102000009751F171D2B8018BAD9CAD63D1F6D16F
:1010300023C0803809F568D28091D7310DD2D5D13F
:1010400099CF811119C08091DD318230A8F45CD232
:101050008091DD318093D7317FD38091D731811159
:1010600004C08091C304882311F084E001C081E0B2
:101070008093DA310E94443D73D2882311F044D228
:1010800028D2EC96CDBFDEBFDF91CF911F910F919B
:1010900008950895CF938091DA31882351F0C0915B
:1010A000E73180E0E8D15CD28111CBDE8C2FCF918B
:1010B000E2C1CF910895BF92CF92DF92EF92FF925B
:1010C0000F931F93CF93DF937C018B01EA015BD3D6
:1010D000B82E811138C0209731F028813981021B48
:1010E000130BE20EF31EC12CD12C28C02091E3314A
:1010F0003091E431F901EF5BFF4F9081F901E05C41
:10110000FF4F8081981788F070D1C4DF209749F095
:10111000888199818C0D9D1D8883998325E0B22E4D
:1011200012C031D3882351F00DC0F70181917F01A6
:1011300093D101501109FFEFCF1ADF0A01151105F4
:10114000A9F601C0B82E8B2DDF91CF911F910F9181
:10115000FF90EF90DF90CF90BF900895BF92CF9215
:10116000DF92EF92FF920F931F93CF93DF937C0157
:101170008B01EA0108D3B82E811138C0209731F0D5
:1011800028813981021B130BE20EF31EC12CD12CD6
:1011900028C02091E3313091E431F901EF5BFF4F3A
:1011A0009081F901E05CFF4F8081981788F036D17B
:1011B00071DF209749F0888199818C0D9D1D88836E
:1011C000998345E0B42E12C0DED2882351F00DC0C1
:1011D00034D1F70181937F0101501109FFEFCF1A3C
:1011E000DF0A01151105A9F601C0B82E8B2DDF917C
:1011F000CF911F910F91FF90EF90DF90CF90BF9014
:101200000895DF92EF92FF920F931F93CF93DF9396
:10121000182F092FEB018091E73180682CD12091A4
:10122000E1313091E2312C173D0720F0209719F47D
:10123000DCD001C0E901E12EF02ED12C3FC080911D
:10124000DA31811102C082E04DC0853011F483E0B3
:1012500049C086D1811145C09CD181113DC0B2D118
:10126000882361F12091E7318091E3319091E4315D
:10127000FC0127FF05C0EF5BFF4F008110E012C0AB
:10128000E05CFF4F0081FC01EF5BFF4F808110E0CD
:10129000081B110907C0F70181917F01DDD021975B
:1012A0000F5F1F4F209719F008301105A0F3DD24C0
:1012B000D3940830110509F0D12C97D0209709F06C
:1012C000BECFD110BCCF08C08091DA31882309F499
:1012D000BACF853009F4BBCF5CD18823A9F380E075
:1012E00001C081E0DF91CF911F910F91FF90EF90AE
:1012F000DF900895DF92EF92FF920F931F93CF93A9
:10130000DF93182F092FEB018091E7318068B3D06C
:101310002091E1313091E2312C173D0720F02097E8
:1013200019F463D001C0E901E12EF02ED12C41C0A7
:101330008091DA31811102C082E04FC0853011F412
:1013400083E04BC00DD1811147C023D181113FC033
:1013500039D1882371F12091E7318091E331909167
:10136000E431FC0127FF05C0EF5BFF4F008110E077
:1013700014C0E05CFF4F0081FC01EF5BFF4F8081F8
:1013800010E0081B110909C0F701849165D0FFEF37
:10139000EF1AFF0A21970F5F1F4F209719F00830AF
:1013A000110590F3DD24D3940830110509F0D12CF8
:1013B0001CD0209709F0BCCFD110BACF08C08091C3
:1013C000DA31882309F4B8CF853009F4B9CFE1D0F8
:1013D0008823A9F380E001C081E0DF91CF911F91C4
:1013E0000F91FF90EF90DF900895E091E531F0913B
:1013F000E631A091E331B091E431AF5BBF4F8C9106
:1014000090E08283938380818D798083E091E331C2
:10141000F091E431EF5BFF4F10820895E091E531E8
:10142000F091E63180818D798083E091E331F09114
:10143000E431EF5BFF4F108208958091E33190918A
:10144000E431FC01EF5BFF4F2081DC01A20FB11DF5
:101450008C912F5F208308952091E3313091E43106
:10146000F901EF5BFF4F9081D901A90FB11D8C935A
:101470009F5F908308958093E731482F4F7094E8E1
:10148000499F9001112428513E4C6091C6047091EF
:10149000C70490E1499FA001112487FF0FC02E5B74
:1014A0003F4F2093E3313093E431CA010896860F11
:1014B000971F8093E5319093E63108952093E331AF
:1014C0003093E431460F571F4093E5315093E63196
:1014D0000895E091E531F091E63181818460818366
:1014E000E091E531F091E6318181807C803459F4DE
:1014F0008091E7318058BFDFE091E531F091E6312E
:1015000081818460818308958091E7318F77B3DF93
:10151000E091E531F091E63180818D788083E09132
:10152000E531F091E631808181608083E091E331A3
:10153000F091E431EF5BFF4F10828091E7318068DA
:101540009ADFE091E531F091E6318081816080831E
:10155000E091E331F091E431EF5BFF4F10820895A9
:101560008091E7318F7787DFE091E531F091E631C7
:10157000808184FF0CC02091E3313091E43182817D
:101580009381F901E05CFF4F808381E0089580E062
:1015900008958091E7318F776EDFE091E531F0912A
:1015A000E631808185FF0CC02091E3313091E43138
:1015B00082819381F901E05CFF4F808381E008958F
:1015C00080E008958091E731806855DFE091E53152
:1015D000F091E63180818695817008951F93CF93B5
:1015E000DF931F921F92CDB7DEB7182F4A8369830E
:1015F00042DFE091E531F091E6311182E091E53191
:10160000F091E631812F881F8827881F880F8083FB
:10161000E091E531F091E63169816183E091E53156
:10162000F091E631128213822091E3313091E4315E
:1016300024833583110F110B4A811423F901E05CD7
:10164000FF4F1083F901EF5BFF4F108281E00F9095
:101650000F90DF91CF911F910895CF92DF92EF927B
:10166000FF920F931F93CF93DF931F921F92CDB7DB
:10167000DEB7E62E6C01F12C46C0F6015081511107
:1016800005C0F394F5E0CF0ED11C3DC0F6010181F9
:10169000128183819481923010F048E101C048E0CA
:1016A00028E030E090E003C09F5F220F331F201737
:1016B0003107D0F3252F2F7030E02330310514F09F
:1016C00080E024C001341105D8F7942B9F7E882335
:1016D00019F0813029F402C0906405C0906C0CC0F0
:1016E0009068811109C0402F692F852F8058598338
:1016F0009A8374DF9A815981402F692F852F6EDF7D
:101700008111BFCFDDCFFE10B8CF81E00F900F90D9
:10171000DF91CF911F910F91FF90EF90DF90CF90CD
:101720000895E0ECF4E0A681B78119961C92A68199
:10173000B78111961C92A681B78159961C92A681F9
:10174000B78151961C92A681B78199961C9206800A
:10175000F781E02D11A208958091DB3187FD04C04F
:1017600031DF882351F00EC014DF811105C0809154
:10177000DA318111F9CF089551CE8091DA3181119A
:10178000EFCF089532CE1F93CF93DF93E091C6043D
:10179000F091C704C0A9D1A914E602C0EC01122F30
:1017A0008091E7318078803851F40CDF811105C0D9
:1017B0008091DA31811105C01CC080E01FC0E9DED4
:1017C000F5CF8530C1F0E091E531F091E6318181CE
:1017D00082FD13C0E091C604F091C70480A991A9CD
:1017E0008C179D07E9F2212F21501111D7CF84E0EA
:1017F00005C082E003C083E001C081E0DF91CF91AA
:101800001F91089562D068D0E0ECF4E081818E7F72
:10181000818380818F7780831092D9310895CF930F
:10182000DF93E0E4F0E014828481836084834DD010
:1018300053D0C0ECD4E088818F778883888180681A
:1018400088831092DA311092D7311092D831888182
:101850008064888348E068E480E8C0DE48E068E4AB
:1018600080E0BCDE88858064888789818160898387
:10187000DF91CF910895CF93DF932FB7F894C0EC09
:10188000D1E082E08A87EAE1F0E0E491A0ECB4E004
:10189000DA96EC93DA97EBE1F0E0E491DB96EC93E7
:1018A000DB971A8685E793E38E7F16968D939C933C
:1018B000179782E18C9383E018968C932FBF81E079
:1018C0008093D931DF91CF91AACFE0ECF4E080850D
:1018D0008370808711860895E0ECF4E08FEF8287B3
:1018E000848708951F920F920FB60F92112408B6A5
:1018F0000F9218BE09B60F9219BE0BB60F921BBEFF
:101900002F933F934F935F936F937F938F939F9307
:10191000AF93BF93EF93FF938091CA0486FF07C0F4
:1019200080E48093CA0485E08093DA31B2DB809151
:10193000CA0485FF13C080E28093CA048091D73126
:10194000882311F084E007C08091C304882311F03C
:1019500083E001C081E08093DA319BDB8091CA048F
:1019600084FF14C080E18093CA0482E08093DA315E
:101970001092D7311092C304D4DE48E068E480E8C6
:101980002DDE48E068E480E029DE83DBFF91EF9103
:10199000BF91AF919F918F917F916F915F914F9187
:1019A0003F912F910F900BBE0F9009BE0F9008BE74
:1019B0000F900FBE0F901F90189581E008956F92C1
:1019C0007F928F929F92AF92BF92CF92DF92EF92CF
:1019D000FF920F931F93CF93DF938091D63188238B
:1019E00009F49CC00E94FE2510924A2020914520B7
:1019F0002F3079F026E0289FB001299F700D112427
:101A000077FF03C07195619571098FED9CE00E948D
:101A1000AC3B24ECE22E21E3F22E3DEAC32E35E36B
:101A2000D32E09E911E3C0E0D0E04FE7A42EB12C9A
:101A30005CE0952E6AE0862EF70141917F01F60168
:101A400081916F01982F975F9331A0F0181694F44D
:101A5000682D0E948841843008F083E0E82FF0E090
:101A6000E95CFF4D8091452060810E947C41992373
:101A7000A9F11BC080914520FE01EB5FF14D9081E3
:101A80009C9EF0019D9EF00D1124E90FF11D94E044
:101A9000EE0FFF1F9A95E1F7E80FF11DEF57F14D9B
:101AA0002081222311F030E01BC02196085F1F4FD8
:101AB000C430D10509F0C0CF8091E6379091E73767
:101AC00050D9809145208F5F80934520803131F53A
:101AD0001092452081E08093442020C02FE730E021
:101AE0007C2EF4E27F0E440F440F740EF801408107
:101AF000429FC001439F900D1124B5010E94954162
:101B0000662E20E040E0672D87E00E947127262D99
:101B100041E0672D87E00E947127C7CFDF91CF9109
:101B20001F910F91FF90EF90DF90CF90BF90AF90FB
:101B30009F908F907F906F9008957F928F929F9249
:101B4000AF92BF92CF92DF92EF92FF920F931F93CB
:101B5000CF93DF9304EC11E3C5E0DEE2AAE9B1E341
:101B600020E030E08FE3882E9FE7992EF801119254
:101B70008F0160E070E040E050E0F1E8EF2EFEE21F
:101B8000FF2EE20EF31E15C0FC01EC0DFD1DE45E00
:101B9000FB4F7490F501E80FF91F708201968031B8
:101BA000910591F74F5F5F4F605F7F4F4C3051055C
:101BB00061F080E090E06A01E4E0CC0CDD1CEA9585
:101BC000E1F75701A60EB71EDFCF1992FD0132973C
:101BD00010828C92FD0133971082FD013197908223
:101BE000FD0136971082189620543F4F2115F3E0DF
:101BF0003F0709F0BBCF1092D6311092D53180E269
:101C0000E1E5FEE2DF011D928A95E9F780E1E3EB71
:101C1000F1E3DF011D928A95E9F71092712E10927F
:101C2000722E1092732E1092742E46D4E1E5FEE2CD
:101C300083EB91E3CFEBD1E37BEBE72E71E3F72E60
:101C400064E04CE958E10FE32CE931E31FE710822F
:101C50001182DC011D92CD01408F518F0993208BA1
:101C6000318B7FE7D7011D937D0161503296611161
:101C7000EECF7093A73310924A2070934B201092AE
:101C8000AC3510928131109282318AE58093C8314F
:101C9000DF91CF911F910F91FF90EF90DF90CF9048
:101CA000BF90AF909F908F907F9008958091D63194
:101CB000811115C00E94FE25892B39F00E94102643
:101CC000882319F081E08093D63181E0809344200D
:101CD0004FE76EE087E00E944C270C942D2640E0F1
:101CE0006EE087E00E944C271092D631109245207A
:101CF000089510924520089590E0FC01EB5FF14DAE
:101D000020813CE0389FF001399FF00D1124E20F53
:101D1000F11D24E0EE0FFF1F2A95E1F7E60FF11DFC
:101D2000EF57F14D8081089590E0FC01EB5FF14D9C
:101D300020813CE0389FF001399FF00D1124E20F23
:101D4000F11D34E0EE0FFF1F3A95E1F7E60FF11DAC
:101D5000EF57F14D40830895E82FF0E0EC53FE4C2F
:101D600060830895E82FF0E0EC53FE4C80810895E5
:101D70004FE76FE087E00E944C2740E06FE087E08C
:101D80000C944C27982F94519430C0F498E0899F7C
:101D9000F0011124ED50FF4C81E0611101C080E0A1
:101DA00084838091813190918231019709F087C0BD
:101DB0000E94191A049709F082C09BC0982F98516D
:101DC000943098F498E0899FF0011124ED52FF4C73
:101DD00081E0611101C080E0858380918131909123
:101DE0008231019709F06BC0E3CF982F965690315E
:101DF000C0F590E0865691099C0123703327959594
:101E000087959595879553E0220F331F5A95E1F7F3
:101E1000F901ED56FE4C82309105B9F08330910501
:101E2000D1F0019731F081E0611101C080E0808341
:101E3000089581E0611101C080E08183809181314A
:101E4000909182310197D9F5B3CF81E0611101C042
:101E500080E08283089581E0611101C080E0838386
:101E600008958F3061F480910220882341F184E04D
:101E700090E00E941E1AA6D11092022079CF8E30D7
:101E8000F1F46623B1F08091D631811118C00E941F
:101E9000FE25892B19F081E08093D63181E0809373
:101EA00044200E942D268C3050F484E080934520FD
:101EB00008951092D6311092452010924420089532
:101EC000843098F0982F9450943048F09450943087
:101ED00048F08C50843048F423E030E008C021E022
:101EE00030E005C022E030E002C020E030E0C9016F
:101EF00008952F923F924F925F926F927F928F92AE
:101F00009F92AF92BF92CF92DF92EF92FF920F9388
:101F10001F93CF93DF9300D01F92CDB7DEB727E991
:101F2000622E21E3722E3AE9832E31E3932E21E5CE
:101F30003EE22B833C8349E9A42E41E3B42E55E0D5
:101F4000C52E5EE2D52E68E0362E7CE0272E412C91
:101F5000512C10E0F3018081811103C09FE7F92E1D
:101F600002C08AE0F82E92012D563E4C29833A8316
:101F7000F9018181882331F04F2D68E7812F0E947C
:101F8000FF3604C060E0812F0E94E236812FEADE36
:101F900060E070E802C0769567958A95E2F74F2D6C
:101FA000812F0E94C436812FDDDE482F26EF34E0DA
:101FB000429FC001439F900D1124EB81FC818083DF
:101FC000918360E070E8F601008002C07695679525
:101FD0000A94E2F74F2D812F8C5F0E94C436F601E0
:101FE000208146EF54E0249FC001259F900D1124CD
:101FF000EB81FC8180879187F3018081811106C08C
:102000004F2D61E0832D0E94FF3604C060E0832DD8
:102010000E94E236EF2C00E021E030E040E0F501E4
:102020006081832D0E944835F5018081F4E68F9F01
:10203000C0011124EB81FC81808B918BE981FA81B5
:102040008581882331F04F2D6FE0822D0E94FF366D
:1020500004C060E0822D0E94E236EF2C0EE721E002
:1020600030E041E0F4016081822D0E944835F401A6
:102070008081F4E68F9FC0011124EB81FC81808F69
:10208000918F1F5FF8E06F0E711C28E0420E511C0B
:1020900038E0830E911C23944B815C814E5F5F4F2F
:1020A0004B835C8358E0A50EB11C33948FEFC81AA4
:1020B000D80A143009F04ECF2496CDBFDEBFDF9191
:1020C000CF911F910F91FF90EF90DF90CF90BF9035
:1020D000AF909F908F907F906F905F904F903F90C8
:1020E0002F900895AF92BF92CF92DF92EF92FF921E
:1020F0000F931F93CF93DF9306D25C01F1E5EF2E90
:10210000FEE2FF2E10E0C1E0D0E0ACE9CA2EA1E370
:10211000DA2E9E012A213B21232B29F06EE3812F09
:102120000E94E23604C060E0812F0E94E23600E0A7
:1021300021E030E040E060E0812F0E94CA35F701E5
:10214000C192D1927F01CC0FDD1F1F5F103109F7C3
:10215000DF91CF911F910F91FF90EF90DF90CF9083
:10216000BF90AF900895FF920F931F93CF93DF938B
:10217000C1E5DEE210E0612F8091D531BDDDF82EA2
:10218000882329F06AE0812F0E94E23604C060E0D3
:10219000812F0E94E23600E021E030E040E06F2D28
:1021A000812F0E94CA3584E6F89E9001112429935C
:1021B00039931F5F1031F9F6DF91CF911F910F9185
:1021C000FF90089580918131909182318230910504
:1021D00031F08330910521F0019719F48ACE82CF36
:1021E000C2CF0895EF92FF920F931F93CF93DF9387
:1021F0001F92CDB7DEB7182FE82EF12CF701ED5462
:10220000FE4C608169835CDE69818130910531F12A
:1022100040F08230910509F472C0039709F09CC028
:1022200085C0F70123E0EE0FFF1F2A95E1F7ED5679
:10223000FE4C8481811102C04FE701C04AE0812F2A
:10224000498390DD60E070E802C0769567958A95D5
:10225000E2F74981812F0E94C4367EC09701245045
:102260003109F90193E0EE0FFF1F9A95E1F7ED5662
:10227000FE4C8481811102C00FE701C00AE0F90120
:10228000E355FA4C8081882379F06AE00E94884106
:10229000E82FF0E0EE0FFF1FE55CFF4D60817181DC
:1022A000812F0E94AA360FC02B5F314D60E070E88D
:1022B000F901008002C0769567950A94E2F7402FF5
:1022C000812F0E94C43660914520812F845014DDF7
:1022D000882381F080914520402F811105C06DE356
:1022E000812F0E94FF3638C06091C831812F0E9433
:1022F000FF3632C060E0812F0E94E2362DC0F70128
:1023000003E0EE0FFF1F0A95E1F7ED5AFE4C8481C2
:10231000811102C08FE701C08AE0E82E00E022E0D0
:1023200030E040E0812F0E94483516C0F701B3E04D
:10233000EE0FFF1FBA95E1F7ED5CFE4C8481811131
:1023400002C08FE701C08AE0E82E0EE722E030E00D
:1023500041E0812F0E94483580914520809348209C
:102360000F90DF91CF911F910F91FF90EF90089503
:10237000CF93C82F80914520C8130DC06091C831FC
:102380008C2F0E94E236CC2311F0C15004C0CFE064
:1023900002C060E007C06C2F8091D531ADDC88238E
:1023A000C1F36AE08C2FCF910C94E2363091452036
:1023B000909149203917C1F1A0910320A031A0F5D7
:1023C000A81332C08091A7336AE10E947C41E4E007
:1023D000F0E0E81BF109EE5CFF4D2081832F622FB6
:1023E0000E947C419C30E0F4622F70E061507109E2
:1023F00020E030E802C0369527956A95E2F740E084
:1024000050E86FEF7FEF04C0769567955795479535
:102410009A95D2F7242B352BB9018A2F0E94AA3620
:10242000809145208093492008950F938091462004
:1024300090E020918131309182312817390709F0DD
:10244000C1DE80918131909182318093462081302C
:102450009105B1F030F082309105B1F00397D9F4D5
:1024600017C000E020E030E040E060E080914720CD
:102470000E94CA3560E5809147200E94E2360BC079
:1024800080914720AFDE07C0809147208FDF03C0D7
:10249000809147206DDF809147208F5F803118F455
:1024A0008093472002C0109247200F9108950C940A
:1024B0001A2A6FEF0C94862A0F931F93CF93DF9302
:1024C00010924E2010924F2001E010E0CDE0D4E0B9
:1024D000CE01EDDF853A51F480914E2090914F204E
:1024E000802B912B80934E2090934F20000F111F33
:1024F000C05CDF4FCD3088E0D80751F7DF91CF9136
:102500001F910F91089580914E2090914F20089532
:10251000F89421E030E0082E02C0220F331F0A9405
:10252000E2F72095309540914E2050914F20422364
:10253000532340934E2050934F2020E4829FC001AC
:102540001124835F9B4FB5DF789408951F93CF9339
:10255000DF93CDB7DEB7AB97CDBFDEBF8BA70E94B1
:102560002203CE010B9640E250E060E070E00E9452
:102570000242CE010B9689839A838BA5880F815ED8
:102580008A871B822BC01C8223C08C81880F682FF6
:102590008B81B2DB869586958695182F1295107FD4
:1025A0008C81880F8F5F682F8B81A6DB869586953F
:1025B00086958F70212F282B89819A81FC01208399
:1025C00089819A81019689839A838C818F5F8C831C
:1025D0008C818830D0F28B818F5F8B838B818430AC
:1025E00090F2CE010B960E94B42A8A850E94C42ADA
:1025F000CE010B9689839A831D820FC08D81B2DB39
:10260000282F89819A81FC01208389819A810196F2
:1026100089839A838D818F5F8D838D81843070F360
:102620001E825FC08E81882F90E0880F991F880FCF
:10263000991F880F991F88569E4CFC018081882F16
:1026400090E09695982F882797958795282F207842
:102650008E81882F90E0880F991F880F991F880F0F
:10266000991F86569E4CFC018081822B282F8981E0
:102670009A81FC01208389819A81019689839A83BA
:102680008E81882F90E0880F991F880F991F880FDF
:10269000991F89569E4CFC018081882F90E0969569
:1026A000982F882797958795282F20788E81882FB7
:1026B00090E0880F991F880F991F880F991F8756E0
:1026C0009E4CFC018081822B282F89819A81FC01FC
:1026D000208389819A81019689839A838E818F5F75
:1026E0008E838E81843008F49DCF1F8281E088879D
:1026F00019861BC08985882F90E0880F991F880F45
:10270000991F880F991F8C569E4CFC01808188234D
:1027100011F0888501C080E09F81892B8F83888597
:10272000880F888789858F5F89878985843010F332
:102730008F81282F2F7089819A81FC0120838981C4
:102740009A81019689839A8389819A8125EAFC017D
:10275000208389819A81019689839A838BA5282F6A
:1027600030E081E090E002C0880F991F2A95E2F7DF
:102770009C0180914E2090914F20822B932B80932F
:102780004E2090934F208A858F5F8A87CE010B96CB
:102790000E94B42A8A850E94C42A0E942A03AB960A
:1027A000CDBFDEBFDF91CF911F9108959F92AF9271
:1027B000BF92CF92DF92EF92FF920F931F93CF932E
:1027C000DF9320E4829FC00111247C01E0E2EE1A35
:1027D000ECEFFE0A05E01EE2E701B12CF8011192D0
:1027E0008F01CE01A12C6C01FFEFCF1ADF0A5FDE53
:1027F000982E482F42954F70440F440F440F6A2D76
:102800008B2D92DA492D4F70440F440F440F6A2DDF
:102810006F5F8B2D89DAA394A394C60120E1A212E5
:10282000E2CF2896B39484E0B812D8CFC70180963F
:1028300010E0EC0121963BDE682F812F8DDA1F5FBF
:10284000CE011430B1F787010C5D1F4FCAE9D1E307
:1028500094E1B92EC8012BDE8F7788836801EFEFF2
:10286000CE1ADE0AC80123DEFE013297881F8827B0
:10287000881F9081981731F06B2D6C5F4FE787E0D0
:102880000E944C27C60113DEFE0131978F778083AB
:102890000E5F1F4FC6010BDEFE013397881F88278E
:1028A000881F9081981729F04FE76B2D87E00E94D1
:1028B0004C272896B394F8E1BF12CCCFC7018C9671
:1028C000F6DD082FCAE6D1E01FE78D2F802341E017
:1028D00009F440E0419F402D11246C2F87E00E94B5
:1028E0004C27DD0FCF5FCE3681F7DF91CF911F915F
:1028F0000F91FF90EF90DF90CF90BF90AF909F909F
:102900000895EF92FF920F931F93CF93DF931F923F
:10291000CDB7DEB7182F209181313091823122302E
:10292000310509F45CC02330310509F49FC0213022
:10293000310509F0CFC06983C3DA6981813091051F
:10294000F9F038F082309105D1F1039709F0C2C057
:1029500036C0662309F4BEC028E0129FF00111249E
:10296000ED56FE4C818191E0892781834FE7849F5A
:10297000402D1124612F665987E00E944C2717C013
:102980006111A8C0E12FF0E0EE0FFF1FE755FA4CF0
:1029900080819181803D974050F414501093D5313F
:1029A00083E090E0809381319093823193C00F90C7
:1029B000DF91CF911F910F91FF90EF909ACA6623FC
:1029C00009F488C0612F645F4FE787E00F90DF91C3
:1029D000CF911F910F91FF90EF900C944C2766239D
:1029E00009F478C080914C20882351F0812F90DD2C
:1029F00080910320811332C081E1809303202EC097
:102A000082DDE12EF12C21E030E0012E02C0220F08
:102A1000331F0A94E2F728233923EE0CFF1C812F81
:102A2000232B79F0C3DE10930320F701EF5AF14D09
:102A30008081918164E670E00E9495416093A733A4
:102A40000DC084DD10930320F701EF5AF14D8CE99E
:102A500091E3808391838FE78093A7330F90DF9179
:102A6000CF911F910F91FF90EF903CCB662391F196
:102A7000682F8091D53140D900E021E030E040E07E
:102A8000811110C06FE7812F0E94CA35E12FF0E05D
:102A9000EE0FFF1FEF5AF14D2CE931E32083318314
:102AA0004FE70DC060E0812F0E94CA35E12FF0E0B2
:102AB000EE0FFF1FEF5AF14D1082118240E0612F9F
:102AC0008091D5310F90DF91CF911F910F91FF90A1
:102AD000EF902AC90F90DF91CF911F910F91FF9036
:102AE000EF9008952F923F924F925F926F927F9254
:102AF0008F929F92AF92BF92CF92DF92EF92FF920E
:102B00000F931F93CF93DF93CDB7DEB72797CDBF3A
:102B1000DEBF0E94D63B79EAC72E75E3D72EE9EADD
:102B20008E2EE5E39E2EF3EBAF2EF1E3BF2E29E5CB
:102B300031E32C833D8381E59EE28E839F83A1E771
:102B4000EA2EAEE2FA2EA5E6BEE2AA83BB83212CD2
:102B5000312C66246394712C522C822D0E94CF3B21
:102B60008983082F112707FD10950115110509F418
:102B700053C1822D8C50843038F5809181319091F1
:102B80008231019709F5EE81FF81808191810E9458
:102B900016208823C9F0AA81BB818C912981820FDC
:102BA0008C938B303CF0E0E0F9E1AE81BF81ED9396
:102BB000FC938EC0863F0CF08BC0E8E3F8E1AE8159
:102BC000BF81ED93FC9384C0AE81BF818D919C91B8
:102BD0000E941F208823B1F1EE81FF8180819181C5
:102BE0008436910520F4101611063CF00BC0893391
:102BF000F1E39F0738F017FF05C0D7012C91398109
:102C0000230F2C93D7012C91243064F08436910546
:102C100008F05EC024E630E0EE81FF81208331833E
:102C20001C9256C02D3F0CF053C08933914308F4D9
:102C30004FC0E8E3F1E3AE81BF81ED93FC93D70190
:102C40001C9246C0B3E0B51598F080918131909107
:102C50008231019781F4EE81FF8180819181298108
:102C600030E52302800D911D11248083918326C0BD
:102C700047E04515A0F08091813190918231019714
:102C800071F4AE81BF818D919C911197298134E6B9
:102C90002302800D911D11248D939C930FC042EB54
:102CA000409F9001419F300D1124AE81BF818D91D5
:102CB0009C911197820F931F8D939C93EE81FF81BE
:102CC000808191810E940720AE81BF818D939C936A
:102CD000EE81FF81808191810E94F91F482E8091B1
:102CE0008131909182318130910509F07BC0852D31
:102CF000E7D881309105E1F040F08230910509F488
:102D00005EC0039709F088C060C0642D70E080E069
:102D100090E00E942E3E2DEC3CEC48E351E40E94F2
:102D2000623D0E94003E852D17D8D5014C9274C09B
:102D3000F601208131812115310559F1FEE4F09F22
:102D4000A001F19F500D501B1124AE81BF818D91C8
:102D50009C911197840F951F8D939C9317FF03C02F
:102D6000119501951109B4E6B09FC001B19F900D76
:102D70001124820F931FF60180839183D4018C91DB
:102D80002981820F8C9388320CF446C037E23C9341
:102D900043C081010F5F114D642D70E080E090E031
:102DA0000E942E3E2DEC3CEC48E351E40E94623D33
:102DB0000E94003ED8016C93F50140822DC0AC8189
:102DC000BD814C92F501408227C0EC81FD817F9747
:102DD0004082D5014C92652D605F442D87E00E94B2
:102DE0004C271AC08330910579F4442D652D8091CC
:102DF000D5310E94940E00E021E030E040E0642DE7
:102E0000852D0E94CA3508C0029731F480910320B5
:102E1000581202C04092A7330E94063C8621972197
:102E2000892B21F061E0852D6CDD09C00E940B3CEF
:102E300086219721892B19F060E0852D62DD852D93
:102E40008450843090F40E94013C86219721892B84
:102E500039F0F6018081918101968083918305C0CC
:102E6000D6011D921C92F4011082660C771CFFEFB4
:102E70002F1A3F0A22E0C20ED11C3FEF831A930A99
:102E80004FEFA41AB40A8C819D8108968C839D8390
:102E9000AE81BF811296AE83BF83BFEFEB1AFB0AF0
:102EA000EA81FB813196EA83FB83F0E12F1631043E
:102EB00009F052CE2796CDBFDEBFDF91CF911F9193
:102EC0000F91FF90EF90DF90CF90BF90AF909F90C9
:102ED0008F907F906F905F904F903F902F900895CC
:102EE000BF92CF92DF92EF92FF920F931F93CF93F7
:102EF000DF93882309F442C080914C20882371F02D
:102F000081E090E09BD2DF91CF911F910F91FF90D4
:102F1000EF90DF90CF90BF900C94342181E08093AC
:102F20004C2009E01EE285E0C82E8EE2D82E9AE001
:102F3000E92E9EE2F92EB12C8B2D0E94B20EF801E3
:102F40008083F60181916F01F7018083C0E0D0E0BA
:102F50006C2F8B2D0E947C0EF801EC0FFD1F8283DD
:102F60002196C031D105A1F7B3940E5E1F4FF2E157
:102F7000EF0EF11C84E0B812DFCF39C010924C2064
:102F800009E01EE2CAE0EC2ECEE2FC2ED5E0CD2E0A
:102F9000DEE2DD2EB12CF80160818B2D0E94AC0E9B
:102FA000F7018081F60181936F01C0E0D0E0F80164
:102FB000EC0FFD1F42816C2F8B2D0E94940E2196E9
:102FC000C031D105A1F7B3940E5E1F4FF2E1EF0EB1
:102FD000F11C84E0B812DFCFDF91CF911F910F91E8
:102FE000FF90EF90DF90CF90BF900C94790FDF911E
:102FF000CF911F910F91FF90EF90DF90CF90BF90F6
:103000000895DF92EF92FF920F931F93CF93DF9378
:103010000E94103CD82E10E001E0C1E0D0E022E098
:10302000E22EF12C80914D209D2D9827902309F4BC
:103030004CC0902F982381E009F080E01330C1F05C
:1030400030F4112349F0113009F03FC01AC0143098
:10305000C1F01530D1F525C08823B9F180914C20FD
:10306000882319F00E94B80E30C00E94790E2DC03E
:10307000882359F180914C20811127C00E94560E5F
:1030800024C020918131309182312130310511F4F9
:1030900027DF1BC0811119C0C0938131D0938231C9
:1030A00014C020918131309182312230310549F4B0
:1030B000882321F081E080934C2007C010924C209F
:1030C00004C0E0928131F0928231000F1F5F163010
:1030D00009F0A8CFD0924D20DF91CF911F910F9191
:1030E000FF90EF90DF900895CF93DF93CDB7DEB7D9
:1030F0006397CDBFDEBF8B8B80916320909164205E
:103100008430910569F58B89882351F18091B93517
:1031100089838981882309F445C08981893008F031
:1031200041C08981882F90E00197880F991F8D5A9F
:103130009F4DFC01808191810097A1F18981882FA9
:1031400090E00197880F991F8D5A9F4DFC012081B7
:1031500031818B8981506AEB75E3F901199522C0A1
:10316000809163209091642083309105E1F48B89F4
:103170008230C8F08091B9358630A9F48091BA3593
:10318000813089F481E1E1E2F0E2DE011296019002
:103190000D928A95E1F7CE010296BC0181E10E9471
:1031A000302601C000006396CDBFDEBFDF91CF9116
:1031B0000895982F9150983040F4E82FF0E0EE0FEA
:1031C000FF1FEF5AFF4D608371830895FC018091CA
:1031D000522081112CC081E08093522089EB95E32D
:1031E00080935020909351208181803F09F063C0EB
:1031F00082818E3779F4838190910620891719F0A6
:103200008F3709F058C083E090E08093632090935B
:103210006420089581114FC08381813009F04BC033
:1032200081E090E0809363209093642008958091E2
:103230006320909164208130910501F58181893767
:10324000D1F5A0915020B0915120CD01029620914E
:103250000420309105208217930768F524E030E0C0
:10326000209363203093642022812C932381119634
:103270002C9380935020909351200895029709F148
:10328000A0915020B0915120CD01039620910420AF
:10329000309105208217930770F421812C932281AD
:1032A00011962C931197238112962C938093502082
:1032B00090935120089582E090E080936320909352
:1032C00064200895FC011092522080916320909117
:1032D00064208130910521F58181893709F03FC053
:1032E000A0915020B0915120CD0102962091042050
:1032F000309105208217930790F524E030E0209369
:1033000063203093642022812C93238111962C9387
:103310008093502090935120895B9543E5DE1FC038
:103320000297E9F0A0915020B0915120CD01039671
:1033300020910420309105208217930780F4218189
:103340002C93228111962C931197238112962C9302
:103350008093502090935120895B9543C5DE109255
:10336000632010926420089520915220222359F165
:103370001092522020916320309164202230310538
:10338000F1F0E0915020F09151209F012E5F3F4FCE
:1033900040910420509105202417350780F4DC016A
:1033A00011964C911197408312968C9181832093B2
:1033B000502030935120C901895B954395DE1092CE
:1033C000632010926420089520915220222339F125
:1033D00010925220209163203091642022303105D8
:1033E000D1F0E0915020F09151209F012F5F3F4F8D
:1033F00040910420509105202417350760F4DC012A
:1034000011968C9180832093502030935120C901D4
:10341000895B954369DE10926320109264200895C1
:1034200010926520109266201092672010926820FA
:1034300008958091692090916A2008958093692071
:1034400090936A200895FC01848580937720808181
:10345000918180936B2090936C20828193818093E3
:103460006D2090936E208481958180936F2090933E
:10347000702086819781809371209093722080853F
:103480009185809373209093742082859385809397
:1034900075209093762008958BE690E208951F930F
:1034A000CF93DF93182FEB0180917720882319F0B9
:1034B0009DD5982F01C090E0E12FF0E0EE0FFF1FA7
:1034C000E559FF4D208131812630310509F4C2C014
:1034D000A0F42230310509F463C040F42115310510
:1034E00029F12130310509F044C13DC024303105B6
:1034F00009F491C008F099C06DC02930310509F474
:10350000DEC048F42730310509F4B3C02830310556
:1035100009F02FC1BFC02B30310509F4FAC008F4FF
:10352000E3C02C30310509F024C107C1C130D105F9
:1035300049F4612F685F892F880F890F880F680F02
:103540004FE70BC0CD2B09F014C1612F685F892FA5
:10355000880F890F880F680F40E083E0DF91CF91DB
:103560001F910C944C27C130D10509F002C1012EE6
:1035700001C0CC0F0A94EAF7E92FF0E0EB59FF4DB8
:1035800080818C278083C82311F04FE701C040E081
:10359000612F685F892F880F890F880F680FDDCF33
:1035A000C130D10551F4612F685F892F880F890FD1
:1035B000880F680F2FE741E0D6C0CD2B09F0D9C0A6
:1035C000612F685F892F880F890F880F680F20E0AF
:1035D00040E0C9C0C130D10509F0CBC0012E01C007
:1035E000CC0F0A94EAF7E92FF0E0EB59FF4D808108
:1035F0008C2780838C2311F02FE701C020E041E06D
:10360000811101C040E0612F685F892F880F890F09
:10361000880F680FA8C0C130D10589F482E090E01E
:103620008093692090936A20A4C0C130D10539F4F9
:1036300083E090E08093692090936A209AC0CD2B1C
:1036400009F097C011D681E090E0809369209093B3
:103650006A208FC0219709F08CC0C8D4833008F04D
:1036600088C0C4D420E040E0682F83E00E94712726
:1036700073C0219709F07DC0B9D4882309F479C0BB
:10368000B5D420E040E0682F83E00E947127AED4DB
:10369000815064C0219709F06CC0A8D420E040E0BC
:1036A000682F83E00E9471272FE741E060E083E00C
:1036B0000E94712780E0DF91CF911F91F9C421977B
:1036C00009F057C093D420E040E0682F83E00E94C7
:1036D00071272FE741E061E083E00E94712781E0DC
:1036E000DF91CF911F91E4C4219709F042C07ED4AD
:1036F00020E040E0682F83E00E9471272FE741E03F
:1037000062E083E00E94712782E0DF91CF911F91F8
:10371000CFC4219771F56AD420E040E0682F83E0A0
:103720000E9471272FE741E063E083E00E94712748
:1037300083E0DF91CF911F91BBC42197D1F456D480
:1037400020E040E0682F83E00E9471274FD483304F
:1037500019F480E0ADD403C049D48F5FA9D446D416
:103760002FE741E0682F83E0DF91CF911F910C9408
:103770007127DF91CF911F9108950F931F93CF93DE
:10378000DF930E94103C32D40E94523C82719927F0
:10379000429791F4809178208271823011F08031CB
:1037A000B9F584E090E08093692090936A200E94AC
:1037B000E210109278202CC010E001E00E94563CEC
:1037C000C02FD0E08C239D23892B29F061E070E08D
:1037D000812F65DE15C00E945A3C8C239D23892BC6
:1037E00029F060E070E0812F5ADE0AC00E94523C4E
:1037F0008C239D23892B21F062E070E0812F4FDE26
:10380000000F1F5F1630D1F60E94523C8093782043
:10381000DF91CF911F910F9108958F929F92BF9248
:10382000CF92DF92EF92FF920F931F93CF93DF938C
:103830001F921F92CDB7DEB7B62E082F10E09EE084
:10384000899F70011124E9E7F0E2EE0EFF1EF701F7
:10385000808580FF69C0462F678186810E944C2742
:10386000F7018585882309F45FC08091C931B816B6
:1038700008F45AC0882E912C6091C33170E0681909
:103880007909882777FD8095982F0E942E3E20E0A9
:1038900030E04EEF52E40E94623D9B01AC0160E0DB
:1038A00070E080E89FE30E94623D6B017C016B2D1C
:1038B00070E068197909882777FD8095982F0E9414
:1038C0002E3E9B01AC01C701B6010E94D33F0E946E
:1038D000003E8091E6379091E73769837A830E94B2
:1038E000B1066981462F7A81572F4038510510F073
:1038F0004FE750E08EE0809FF001819FF00D112492
:10390000E758FF4D6781605C86810F900F90DF91D3
:10391000CF911F910F91FF90EF90DF90CF90BF90CC
:103920009F908F900C944C270F900F90DF91CF9128
:103930001F910F91FF90EF90DF90CF90BF909F90DD
:103940008F9008950F931F93CF93DF93CDB7DEB77A
:103950002897CDBFDEBF262F8A01F89430E8839FD9
:10396000C0011124809648E050E0BE016F5F7F4F98
:10397000E8E02E9F800D911D11240E942B2A78943F
:103980008981982F9F70F8019283158282958F709C
:1039900083838A818F7784838B8181878C818287DF
:1039A0008D81982F9F779387881F8827881F808312
:1039B0008E81982F937094878695869583708183E6
:1039C0008F81982F9370908782958F7086838885DA
:1039D000982F9F779783881F8827881F8587289629
:1039E000CDBFDEBFDF91CF911F910F910895CF9290
:1039F000DF92EF92FF920F931F93CF93DF93C0E07C
:103A0000D0E01EE01C9FA0011D9F500D11244758BF
:103A10005F4D6C2F8091592195DF2196C031D105E2
:103A200089F79CEDC92E96E3D92E03E210E017C06A
:103A3000C7010E941A2AF601EC0FFD1F808368E07F
:103A4000E60EF11C2196C031D10591F700581F4FA9
:103A500080E1C80ED11C0332E2E01E0721F078019C
:103A6000C0E0D0E0E5CF40915921552747FD509562
:103A700009E710E28CE397E3C8EBD6E3ACE1B7E3E8
:103A80002CE938E1F8016081662331F0288339831D
:103A90002D933C93119705C0188219821D921C9298
:103AA0001197FC011192CF01025F1F4F22961296CF
:103AB000F1E209351F0731F7FA01EE0FFF1FE0535E
:103AC000F84C1082118288E080935A2182E0809322
:103AD0005B21DF91CF911F910F91FF90EF90DF90CD
:103AE000CF900895DF92EF92FF920F931F93CF93A1
:103AF000DF93CDB7DEB7A097CDBFDEBFE82ED62EC1
:103B00008A01F62EF694F69420E8829FC0011124D3
:103B1000809640E250E0BE016F5F7F4FA0E2FA9EC8
:103B2000800D911D11240E942B2A8D2D8370E1E0C0
:103B3000F0E0EC0FFD1FB8E08B9FE00DF11D1124AC
:103B4000D80112969C9197FD05C08081807F9F705F
:103B5000892B8083D80113962C9127FD08C0808182
:103B60008F70B0E12B9F90011124822B8083D801AC
:103B700014968C9187FF8183D80119968C9187FFC9
:103B80008283D8011A968C9187FF8383D8019C91F8
:103B900097FD04C0848190FB87F98483D8011B962C
:103BA0009C9197FD05C0848180789F77892B8483C1
:103BB000D8011C969C9197FD05C085818C7F9370E0
:103BC000892B8583D80111962C9127FD0AC09581F8
:103BD000937FB4E02B9F900111242C703327922BFC
:103BE0009583D80118968C9187FD05C096819C7F9E
:103BF0008370982B9683D80116962C9127FD08C0C8
:103C000096819F70B0E12B9F90011124922B968397
:103C1000D80117968C9187FD04C097819078982BD6
:103C20009783D8011D969C9197FD04C0878190FBD6
:103C300087F987831E2D110F110F1F5F1F0DF89439
:103C4000CE0101960E94B42A812F0E94C42A789442
:103C5000A096CDBFDEBFDF91CF911F910F91FF9056
:103C6000EF90DF900895FF920F931F93CF93DF9310
:103C7000CDB7DEB7A097CDBFDEBFFE01319680E2A3
:103C8000DF011D928A95E9F780E050E143E391E07E
:103C90003FE322E0508381834283938334832583EF
:103CA0009683878338968F5F8430A1F7FF24F3943F
:103CB0008E01085D1F4FF894CE0101960E94B42A30
:103CC0008F2D0E94C42A7894AE014E5F5F4F9E01F3
:103CD0002D5F3F4FBE016C5F7F4FFE013896DA01CA
:103CE0008C918C5F8C93D9018C918C5F8C93DB01D0
:103CF0008C918C5F8C9380818C5F8083485F5F4F59
:103D0000285F3F4F685F7F4F3896E017F10739F71C
:103D1000F394B1E1FB12CFCFA096CDBFDEBFDF9110
:103D2000CF911F910F91FF900895BF92CF92DF9294
:103D3000EF92FF920F931F93CF93DF93C82E0E94B1
:103D4000D63B8C2D8295807F4CE2D42ED80E5CE33E
:103D5000B52EB80EC1E0D0E00C2D10E0000F111F01
:103D600078EDE72E76E3F72EE00EF11E0453184CA3
:103D70000E94063C8C239D23892BA9F02FE741E06C
:103D80006D2D83E00E947127F701808191818C2342
:103D90009D23892B29F5F801208131812C2B3D2B86
:103DA000208331831DC00E940B3C8C239D23892BD3
:103DB000B9F020E040E06D2D83E00E947127F7010B
:103DC000208131812C233D23232B51F49E0120950A
:103DD0003095F80180819181282339232083318314
:103DE000CC0FDD1FD394DB10C3CF80915C21EC2D71
:103DF000F0E0EE0FFF1FE453F84C21E030E0082E16
:103E000002C0220F331F0A94E2F74081518124231C
:103E1000352360E0232B61F00E94E23600E021E0D0
:103E200030E040E06FE780915C210E94CA350BC012
:103E30000E94E23600E021E030E040E060E0809166
:103E40005C210E94CA3580915C218F5F803118F41B
:103E500080935C2102C010925C21DF91CF911F9171
:103E60000F91FF90EF90DF90CF90BF900895E62FD5
:103E7000322F603168F5009719F0019749F503C0BA
:103E8000642F8E2FCACCA62FB0E08EE0689FF00181
:103E90001124E758FF4D8281823030F0863021F0C6
:103EA000873011F0843059F48EE08A9FF0018B9FA7
:103EB000F00D1124E758FF4D64818381EDC78250D6
:103EC000823030F4242F432F648183810C94712736
:103ED00008950F93CF9380915D21282F30E090912A
:103EE0005921F90140E19402E00DF11D1124E85837
:103EF000F94CC081F901E25AFE4D9081C917C9F011
:103F00009EE0929FF001939FF00D1124E758FF4D22
:103F1000248541E09081911101C040E0038530E0AB
:103F20006C2F0E94CA35E0915D21F0E0E25AFE4D0F
:103F3000C08380915D21282F30E090915921F901B3
:103F400060E19602E00DF11D1124E452F94CC081AC
:103F5000F901E259FE4D9081C91749F06C2F0E947A
:103F6000E236E0915D21F0E0E259FE4DC083909190
:103F7000592180915D21482F50E09A0160E196021D
:103F8000200D311D1124F901E85CF94CC081CC23CE
:103F900071F0F901E452F94C40816C2F0E945437C2
:103FA000E0915D21F0E0E258FE4DC08312C0FA01BD
:103FB000E258FE4D9081992361F0F901E452F94CE9
:103FC00060810E94E236E0915D21F0E0E258FE4D12
:103FD000108280915D218F5F803118F480935D2184
:103FE00002C010925D21CF910F91089580915921C7
:103FF00008959C0129533841273C310510F48FE383
:10400000089564E670E00E94A941862F08959C01FE
:1040100097FD05C02D3981E3380724F405C020E061
:1040200030E002C02CE931E3C90108959C01295315
:10403000384181E0273C310508F080E008959C017B
:104040002150310981E02B39314308F480E0089593
:104050001F93CF93DF93182F8EE0689FD001112418
:10406000A758BF4D12969C9196509230D0F4C1E063
:10407000D0E002C0CC0FDD1F6A95E2F70E94013C40
:104080008C239D23892B79F4E12FF0E0EE0FFF1FA5
:10409000E053F84C208131812C233D2381E0232BF8
:1040A00019F480E001C081E0DF91CF911F91089564
:1040B0002F923F924F925F926F927F928F929F9238
:1040C000AF92BF92CF92DF92EF92FF920F931F9326
:1040D000CF93DF93CDB7DEB72897CDBFDEBF582E85
:1040E00098EBC92E96E3D92E0BE710E28EE591E20C
:1040F00089839A83AEE6B1E2AB83BC83ECE1F7E35C
:10410000EF83F887A52CB12C450124E0880C991C7D
:104110002A95E1F788E796E3880E991E35E0AA0C08
:10412000BB1C3A95E1F7ACE4B7E3AA0EBB1EE12C49
:10413000F12C612C712C44E6242E312C462C8091DC
:1041400059219301B0E18B02200D311D1124F90199
:10415000E858F94CD6018D919C91B1010E94A9417A
:104160006083F401E60DF71DED83FE838081F4E6A4
:104170008F9FC0011124D6018D939C93F8018081FB
:104180008650823070F4F901EE0FFF1FE45BF84CAB
:10419000AF81B8858D919C91B1010E94A941608346
:1041A0007183E981FA814FEF4193E983FA83AB810F
:1041B000BC814D93AB83BC83BEE0B69DA001B79D8F
:1041C000500D112447585F4D642D852DBBDBF80140
:1041D00080818650823078F4F501EE0DFF1D20813C
:1041E0003181F4E6F29FC001F39F900D1124AF815D
:1041F000B8858D939C93642D852D2ADF882339F013
:10420000F501EE0DFF1D8081ED81FE818083FFEFC2
:104210006F1A7F0A42E0C40ED11C82E0E80EF11C46
:10422000025F1F4FAF81B8851296AF83B887B0E1A8
:104230006B16710409F082CF509259212896CDBF98
:10424000DEBFDF91CF911F910F91FF90EF90DF9034
:10425000CF90BF90AF909F908F907F906F905F9026
:104260004F903F902F9008958091592121CFDF9258
:10427000EF92FF920F931F93CF93DF93CDB7DEB7EB
:104280002F97CDBFDEBF962FD42ED2945FE0D522DC
:10429000642F6F70813009F43EC038F0823009F429
:1042A000B4C0833009F0EFC0BCC0913009F0EBC05E
:1042B000062F10E084E6289F70011124F801EE0F0C
:1042C000FF1FE854F94C408151814E195F0957FF97
:1042D00003C0519541955109493552400CF4D3C062
:1042E0008D2D2F87B5DE2F85811109C0D80180E182
:1042F000D89EA00DB11D1124A858B94C2C938091C3
:104300005921D812C0C0F801EE0FFF1FE854F94C34
:10431000E082F182B8C00D2D10E021112CC0262FB3
:1043200030E0F801EE0FFF1FE852F84C81E090E01A
:1043300002C0880F991F6A95E2F780959095408199
:1043400051818423952380839183F80194E0EE0FBB
:10435000FF1F9A95E1F7E20FF31FE452F94C8EE04C
:10436000829FD001839FB00D1124A758BF4D1A968C
:104370008C91808388C0822F8150E62EF12C8D375E
:10438000F0F4F801EE0FFF1FE852F84C81E090E0E6
:1043900002C0880F991F6A95E2F740815181842BF2
:1043A000952B80839183F80114E0EE0FFF1F1A957F
:1043B000E1F7EE0DFF1DE452F94C208364C0D801F3
:1043C000AA0FBB1FA852B84C21E030E0062E02C055
:1043D000220F331F0A94E2F78D919C911197282B9D
:1043E000392B2D933C93AE014F5F5F4F8D2DAADA91
:1043F000F801A4E0EE0FFF1FAA95E1F7EE0DFF1DF7
:10440000E452F94C8A8580833EC09130E1F580E129
:10441000D89EF0011124E60FF11DE85CF94C2083D1
:1044200032C0911130C04C3270F14D3460F54C52B5
:10443000E42FE295EF70F0E04F7081E090E002C071
:10444000880F991F4A95E2F7EE0FFF1FDF01A85270
:10445000B94C4D915C911197482B592B4D935C931E
:10446000E453F84C222339F020813181282B392B59
:104470002083318308C080959095208131818223EB
:104480009323808391832F96CDBFDEBFDF91CF91A1
:104490001F910F91FF90EF90DF9008952F923F9220
:1044A0004F925F926F927F928F929F92AF92BF9244
:1044B000CF92DF92EF92FF920F931F93CF93DF93F0
:1044C000CDB7DEB72997CDBFDEBF0E94D63B2BE725
:1044D00030E229833A8349E750E24B835C8323E847
:1044E000C22E20E2D22E08EB16E332E8632E30E231
:1044F000732E4CE1842E47E3942E5CE3A52E57E304
:10450000B52E18861986EE24E394F12C74E6472E16
:10451000512C3884832D0E94CF3B482F282F3327DE
:1045200027FD30952115310509F4D7C0AB81BC8139
:104530008C91882309F1F8018081918189539841F8
:10454000873C910508F477C217C0E0E0F9E1D80193
:10455000ED93FC93C2C0332727FD309599278195B1
:104560000CF49095281739070CF0B7C0E8E3F8E190
:10457000D801ED93FC93B1C0D8016D917C91CB0132
:1045800001978B39914308F060C264C2121613067A
:104590001CF006C037FF04C0F5018081840F8083C2
:1045A000D5012C9180915B21821744F4643671050A
:1045B0002CF4F801408251821C928FC0332727FDD2
:1045C0003095992781950CF49095281739070CF0B0
:1045D00084C0693371430CF480C0E8E3F1E3D8018F
:1045E000ED93FC93D5011C9278C0405CD6011397E3
:1045F000F60134976C9180814FD46FC0E981FA81C4
:104600008081853089F42D833E834F830E94013C55
:104610008E219F212D813E814F81892B29F0F9E147
:104620004F02A001112410C0F60139978081811139
:1046300005C024E64202A001112406C062EB629F7D
:10464000A001639F500D1124632D809159214F8348
:104650005D83FEDC4F815D81882329F1D4018D913A
:104660009C91840F951FD3DCF40180839183C1DC7E
:10467000282E21E0482F632D81E090E0F8DB809127
:104680005921E885F98520E18202E00DF11D112410
:10469000DF01A858B94C2C92EE0FFF1FE45BF84CD9
:1046A000208211821AC0D8018D919C91840F951F90
:1046B000AEDCF801808391839CDC282E682F832D4B
:1046C000ACD880915921E885F98520E18202E00D7E
:1046D000F11D1124E858F94C20820E94063C8E21DD
:1046E0009F21892BE1F0A981BA818C918330F1F06F
:1046F00060F48130D9F00E94063C8E219F212091E8
:104700005921892B09F46EC05DC0863009F404C1BB
:10471000873009F428C1843009F068C1BDC00E9407
:104720000B3C8E219F21892BF1F660C10E94063C33
:104730008E219F21892B09F459C1E0915921B0E1C3
:10474000EB0290011124A885B985A20FB31FAA0F0F
:10475000BB1FA45BB84C8D919C91892B19F040E054
:1047600050E002C04FE750E0A885B985A20FB31F03
:10477000AA0FBB1FA45BB84C4D935C9381E090E003
:10478000088402C0880F991F0A94E2F7F0E0EE0F48
:10479000FF1FE852F84C6081718186239723892B93
:1047A00009F073C04115510519F0F301808102C071
:1047B000D6018C91E885F985E20FF31FE452F94C9C
:1047C000808363C0E885F985B0E12B02E00DF11D1F
:1047D0001124EE0FFF1FE45BF84C2FE730E020833D
:1047E00031830DC0E885F98530E12302E00DF11D2C
:1047F0001124EE0FFF1FE45BF84C10821182E09150
:10480000592181E090E0088402C0880F991F0A9422
:10481000E2F7AE2FB0E0AA0FBB1FA852B84C2D9103
:104820003C9182239323FF27E7FDF095892BF1F438
:10483000CF0124E0880F991F2A95E1F7A885B98553
:10484000A80FB91FAA0FBB1FA45BB84C2D913C91B8
:10485000232B19F0D3012C9102C0D6012C91A885ED
:10486000B985A80FB91FA452B94C2C93A4E0EE0F40
:10487000FF1FAA95E1F728853985E20FF31FEE0F98
:10488000FF1FE45BF84C4081518121E04115510547
:1048900009F03DC020E03BC0AB81BC818C918823F6
:1048A00031F02CE938E1F8012083318303C0D801CD
:1048B0001D921C92F5011082D8018D919C9199DB7B
:1048C000282E682F832D0E940D1C80915921E88588
:1048D000F985B0E18B02E00DF11D1124E858F94C87
:1048E00020820E94063C8E219F21892B39F021E0F5
:1048F0004FE7632D81E090E0BADA78C00E940B3C6C
:104900008E219F21892B09F471C020E040E0632DA6
:1049100081E090E0ACDA6AC00E94063C8E219F21C3
:10492000892B69F080915921E885F98520E182027F
:10493000E00DF11D1124CF01E452F94C3CC00E945E
:104940000B3C8E219F21892B09F450C08091592165
:10495000E885F98520E18202E00DF11D1124CF01E7
:10496000E452F94C36C00E94063C8E219F21892BCF
:10497000E9F120915921332727FD3095F901EE0FF8
:10498000FF1FE053F84C808191818E259F25808305
:104990009183AC014E215F21C901E4E0880F991F8A
:1049A000EA95E1F7E885F9858E0F9F1FFC01E45237
:1049B000F94C452B71F0D3012C912083FC01E85870
:1049C000F94CD4018D919C91B2010E94A941608360
:1049D0000DC0D6012C912083FC01E858F94CD80178
:1049E0008D919C91B2010E94A9416083EE0CFF1C45
:1049F000E885F9853196E887F98729813A81225F30
:104A00003F4F29833A834B815C81425F5F4F4B83E9
:104A10005C835EE0C50ED11C0E5F1F4F6EE0660E1C
:104A2000711C82E0880E911C9FEFA91AB90A709739
:104A300009F06FCD16C0D5012C91240F2C938091D5
:104A40005A2182170CF481CD86CD643671050CF4A1
:104A50009DCDA0CDF60132978081823009F0CECD78
:104A6000C4CD2996CDBFDEBFDF91CF911F910F91AD
:104A7000FF90EF90DF90CF90BF90AF909F908F907E
:104A80007F906F905F904F903F902F90089587E0B8
:104A900090E28093E6379093E737E0E8F6E091E024
:104AA000918382E0818328E0218324E0228396831E
:104AB00010929621109297218683089581E020918B
:104AC000962130919721232B09F080E00895CF9211
:104AD000DF92EF92FF920F931F9300916008109165
:104AE0006108809193219091942180179107E8F4B7
:104AF0008091932190919421C0908F21D09090210A
:104B0000E0909121F0909221B801681B790B80E030
:104B100090E06C197D098E099F0928E030E040E0A3
:104B200050E00E94DE41B90128C0209193213091CC
:104B30009421C0908F21D0909021E0909121F0900D
:104B4000922181E190E0821B930B97FF03C0919526
:104B500081959109BC01600F711F80E090E06C1994
:104B60007D098E099F0928E030E040E050E00E9476
:104B7000DE4160E070E0620F731FC0908F21D09023
:104B80009021E0909121F0909221CB01AA2797FDEE
:104B9000A095BA2FC80ED91EEA1EFB1EC0928F2107
:104BA000D0929021E0929121F092922180918E21D9
:104BB00081110FC06115710561F0653071054CF40C
:104BC00081E080938E2181E090E080938131909309
:104BD0008231009393211093942100918F211091A1
:104BE00090212091912130919221B801C9011F910A
:104BF0000F91FF90EF90DF90CF90089580918E21DC
:104C0000882351F080918F2190919021A091912142
:104C1000B09192219C0102C020E030E0C9010895CA
:104C200080918E21089553DF809113208F5F8093B0
:104C30001320893189F481E08093132080914420EE
:104C4000882351F0DBDFBC01769567958FED9CE002
:104C50000E94AC3B10924420089580911320089547
:104C6000FF920F931F93CF93DF93CDB7DEB72597B6
:104C7000CDBFDEBF8B01282F81E064E0F62E19C086
:104C8000F982F8013196D8018C918A8380818B83D7
:104C900081818C830D5F1F4FBE016F5F7F4F8091BD
:104CA000E6379091E7372D830E9481062D812350AE
:104CB00080E0243028F7222339F195E09983F80128
:104CC00090819A831B821C82223029F486E089839A
:104CD00081818B8310C0233071F4882311F02983E4
:104CE00002C087E08983D80111968C9111978B833C
:104CF00012968C918C83BE016F5F7F4F8091E63757
:104D00009091E7370E9481062596CDBFDEBFDF91E7
:104D1000CF911F910F91FF900895EF92FF920F9303
:104D20001F93CF93DF9300D01F92CDB7DEB7698377
:104D30007A838B839C83673009F49AC048F465308A
:104D400009F48CC008F08FC0643009F095C081C0B0
:104D5000693079F108F44DC06B3009F45EC06F30F2
:104D600009F08AC08A818A3F89F08C3FB1F0883F80
:104D700009F082C08091A2008B7F8093A20053DF54
:104D80008091A20084608093A20076C082E080932C
:104D9000132081E0809398216FC082E080931320DC
:104DA0001092982110928E211092813110928231AE
:104DB00063C01A811F708B819C81133029F4843069
:104DC00018F49F3709F474D920919521121708F42B
:104DD00053C0412F50E030E02C5F3F4F2417350780
:104DE0000CF44AC001E02C814B8160E0812F3FDA56
:104DF00043C08A818F704B812C81609195218617E9
:104E0000D8F1E82FF0E070E06C5F7F4F6E177F07FE
:104E10009CF100E060E02BDA2FC01A811F70FB804C
:104E2000EC80E09195211E1768F0A12FB0E0F0E032
:104E30003496EA17FB0734F001E02E2D4F2D61E088
:104E4000812F15DA1730C1F46E2D8F2D0E94C20EFE
:104E500013C0CE0101960E94E6180EC0CE01019645
:104E60000E94E41909C0CE0101960E94B41904C041
:104E7000CE0101960E9462192496CDBFDEBFDF915C
:104E8000CF911F910F91FF90EF90089544E050E073
:104E9000BC0180EA9AE00CC1CF93DF9300D01F924F
:104EA000CDB7DEB79BE099838F70806B8A836F7775
:104EB0006B834F774C8302DE882351F0BE016F5F16
:104EC0007F4F8091E6379091E7370E94810603C0BB
:104ED000CE010196DBDF2496CDBFDEBFDF91CF91FF
:104EE0000895CF93DF9300D01F92CDB7DEB7442350
:104EF00011F090E901C090E8392F32953F70398365
:104F00008F70892B8A836F776B832F772C83D6DD05
:104F1000882351F0BE016F5F7F4F8091E6379091FB
:104F2000E7370E94810603C0CE010196AFDF2496C9
:104F3000CDBFDEBFDF91CF9108951F920F920FB6C4
:104F40000F92112408B60F9218BE09B60F9219BE1F
:104F50000BB60F921BBE2F933F934F935F936F93AC
:104F60007F938F939F93AF93BF93EF93FF9380EAC9
:104F70009AE00E94CB319091E3372091E237309153
:104F8000E537921B93232091E437921799F02091F3
:104F9000E337932F96959223E091E037F091E13734
:104FA000E90FF11D8083822F8F5F9091E537892370
:104FB0008093E337FF91EF91BF91AF919F918F91D4
:104FC0007F916F915F914F913F912F910F900BBE09
:104FD0000F9009BE0F9008BE0F900FBE0F901F904C
:104FE00018951F93CF93DF93C0E0D2E011E056C035
:104FF0009091E3378091E237981791F08091E237F2
:105000002091E537922F96959823E091E037F09123
:10501000E137E90FF11DC0818F5F82238093E23772
:1050200080919921813009F118F08230B9F529C0B9
:105030008C2F807F99F18C2F82958F7080939A218D
:10504000C0939B2110929C2110929D218F3051F48E
:1050500060919A2170919B2180919C2190919D213A
:105060005CDE1CC01093992119C080919A21C093D5
:105070009C21803241F0803609F405C0D0939921FB
:105080000DC0C0939D2160919A2170919B218091C8
:105090009C2190919D2141DE109299219091E337BE
:1050A0008091E2379813A4CFDF91CF911F9108959B
:1050B000EF92FF920F931F93CF93DF937C01EB014D
:1050C0008A01060F171F04C06991C7010E94C331EE
:1050D000C017D107C9F780E090E0DF91CF911F9111
:1050E0000F91FF90EF9008952FB7F894FC01E059CD
:1050F000FF4F60958081862380832FBF08951BBE5C
:10510000FC0128ED24BF608308950F931F93CF9374
:10511000DF93282F30E0F901719644E0EE0FFF1F76
:105120004A95E1F760910401A0910301A9014C5F48
:105130005F4FC1E0D0E08E01042E01C0000F0A9441
:10514000EAF7082E01C0CC0F0A94EAF7C02BAC2373
:10515000B0E08D01042E02C0159507950A94E2F780
:1051600000FD1DC0082E02C0B595A7950A94E2F770
:10517000A0FD18C0C6236C2F70E0DB0102C0B595FE
:10518000A7954A95E2F7A0FD10C0AB0102C0559566
:1051900047958A95E2F7CA018170992708C084E093
:1051A00090E005C083E090E002C082E090E04181A1
:1051B00040634183F901EE0FFF1FE251F84C01906B
:1051C000F081E02D309729F0DF91CF911F910F9161
:1051D0001994DF91CF911F910F91089561E080E0C4
:1051E00090E082DF9FB7F894E9EEF7E380818F5F6C
:1051F00080839FBFE0E0F1E080E4808380E88083EB
:1052000008951F920F920FB60F92112408B60F92B5
:1052100018BE09B60F9219BE0BB60F921BBE2F9384
:105220003F934F935F936F937F938F939F93AF932E
:10523000BF93EF93FF9380E068DFFF91EF91BF9101
:10524000AF919F918F917F916F915F914F913F911E
:105250002F910F900BBE0F9009BE0F9008BE0F90BC
:105260000FBE0F901F9018951F920F920FB60F92BE
:10527000112408B60F9218BE09B60F9219BE0BB6CC
:105280000F921BBE2F933F934F935F936F937F9328
:105290008F939F93AF93BF93EF93FF9381E035DF9D
:1052A000FF91EF91BF91AF919F918F917F916F91FE
:1052B0005F914F913F912F910F900BBE0F9009BEC0
:1052C0000F9008BE0F900FBE0F901F9018951F9261
:1052D0000F920FB60F92112408B60F9218BE09B69E
:1052E0000F9219BE0BB60F921BBE2F933F934F9395
:1052F0005F936F937F938F939F93AF93BF93EF933E
:10530000FF9382E002DFFF91EF91BF91AF919F91F8
:105310008F917F916F915F914F913F912F910F905E
:105320000BBE0F9009BE0F9008BE0F900FBE0F90DE
:105330001F9018951F920F920FB60F92112408B666
:105340000F9218BE09B60F9219BE0BB60F921BBE74
:105350002F933F934F935F936F937F938F939F937D
:10536000AF93BF93EF93FF9383E0CFDEFF91EF9175
:10537000BF91AF919F918F917F916F915F914F916D
:105380003F912F910F900BBE0F9009BE0F9008BE5A
:105390000F900FBE0F901F901895DB01E82FF0E0E3
:1053A000719664E0EE0FFF1F6A95E1F72FB7F8944E
:1053B00019968C91199784871A968C911A978587DC
:1053C000168617968C911797808718968C91189748
:1053D0008187128612968C911297828313968C91F4
:1053E0001397838314968D919C911597848395834D
:1053F00016968C911697868311968C9111978183BE
:105400008C918F7780832FBF08958091CF0187FD86
:10541000FCCF08951F93CF93DF93C0ECD1E01A85A2
:105420008A8761E08BEC91E06ADE1A87DF91CF9189
:105430001F910895CF93DF93EC01E7DFECECF1E0EF
:10544000808188608083D05F88819081977F9083FE
:10545000DF91CF910895EF92FF920F931F93CF9317
:10546000DF9300D01F92CDB7DEB78C01CB014B8309
:105470005C8369839A83C9DF8CECE82EFF24F39464
:10548000F7012081286020839801305F4B815C8187
:10549000B90189819A810E94F941F7018081877F52
:1054A00080832496CDBFDEBFDF91CF911F910F91F6
:1054B000FF90EF900895A9DF8091CF0181FF07C091
:1054C00086E38093CA0161E08BEC91E018CE0895E9
:1054D000CF93DF931F921F92CDB7DEB76A83898384
:1054E00094DF2CEC31E0D9019C9198609C938981E8
:1054F000A82FB0E0B05F6A816C93F9018081877F4B
:1055000080830F900F90DF91CF910895EF92FF92DB
:105510000F931F93CF93DF931F921F92CDB7DEB7E8
:10552000182F20ECE22EFF24F394F7010285698303
:105530009A83C1DF6ADF6981812FCADFF701128296
:105540009A819183108385E3828761E08BEC91E0FF
:10555000D6DDF70102870F900F90DF91CF911F9159
:105560000F91FF90EF9008951F93CF93DF93EC017D
:105570004CDF10E06991812FABDF1F5F1032D1F754
:10558000DF91CF911F910895CF93DF931F92CDB7F5
:10559000DEB789833ADF898120E2829FC00111242E
:1055A000E0ECF1E012829183808385E390E00F903C
:1055B000DF91CF912FCF1F920F920FB60F92112430
:1055C00008B60F9218BE09B60F9219BE0BB60F920D
:1055D0001BBE2F933F934F935F936F937F938F9354
:1055E0009F93AF93BF93EF93FF93E0919E21F09130
:1055F0009F21309709F01995FF91EF91BF91AF91DD
:105600009F918F917F916F915F914F913F912F91DA
:105610000F900BBE0F9009BE0F9008BE0F900FBEEB
:105620000F901F9018951F920F920FB60F92112492
:1056300008B60F9218BE09B60F9219BE0BB60F929C
:105640001BBE2F933F934F935F936F937F938F93E3
:105650009F93AF93BF93EF93FF93E091A021F091BD
:10566000A121309709F01995FF91EF91BF91AF916A
:105670009F918F917F916F915F914F913F912F916A
:105680000F900BBE0F9009BE0F9008BE0F900FBE7B
:105690000F901F9018951F920F920FB60F92112422
:1056A00008B60F9218BE09B60F9219BE0BB60F922C
:1056B0001BBE2F933F934F935F936F937F938F9373
:1056C0009F93AF93BF93EF93FF93E091A221F0914B
:1056D000A321309709F01995FF91EF91BF91AF91F8
:1056E0009F918F917F916F915F914F913F912F91FA
:1056F0000F900BBE0F9009BE0F9008BE0F900FBE0B
:105700000F901F9018951F920F920FB60F921124B1
:1057100008B60F9218BE09B60F9219BE0BB60F92BB
:105720001BBE2F933F934F935F936F937F938F9302
:105730009F93AF93BF93EF93FF93E091A421F091D8
:10574000A521309709F01995FF91EF91BF91AF9185
:105750009F918F917F916F915F914F913F912F9189
:105760000F900BBE0F9009BE0F9008BE0F900FBE9A
:105770000F901F9018951F920F920FB60F92112441
:1057800008B60F9218BE09B60F9219BE0BB60F924B
:105790001BBE2F933F934F935F936F937F938F9392
:1057A0009F93AF93BF93EF93FF93E091A621F09166
:1057B000A721309709F01995FF91EF91BF91AF9113
:1057C0009F918F917F916F915F914F913F912F9119
:1057D0000F900BBE0F9009BE0F9008BE0F900FBE2A
:1057E0000F901F9018951F920F920FB60F921124D1
:1057F00008B60F9218BE09B60F9219BE0BB60F92DB
:105800001BBE2F933F934F935F936F937F938F9321
:105810009F93AF93BF93EF93FF93E091A821F091F3
:10582000A921309709F01995FF91EF91BF91AF91A0
:105830009F918F917F916F915F914F913F912F91A8
:105840000F900BBE0F9009BE0F9008BE0F900FBEB9
:105850000F901F9018951F920F920FB60F92112460
:1058600008B60F9218BE09B60F9219BE0BB60F926A
:105870001BBE2F933F934F935F936F937F938F93B1
:105880009F93AF93BF93EF93FF93E091AA21F09181
:10589000AB21309709F01995FF91EF91BF91AF912E
:1058A0009F918F917F916F915F914F913F912F9138
:1058B0000F900BBE0F9009BE0F9008BE0F900FBE49
:1058C0000F901F9018951F920F920FB60F921124F0
:1058D00008B60F9218BE09B60F9219BE0BB60F92FA
:1058E0001BBE2F933F934F935F936F937F938F9341
:1058F0009F93AF93BF93EF93FF93E091AC21F0910F
:10590000AD21309709F01995FF91EF91BF91AF91BB
:105910009F918F917F916F915F914F913F912F91C7
:105920000F900BBE0F9009BE0F9008BE0F900FBED8
:105930000F901F9018951F920F920FB60F9211247F
:1059400008B60F9218BE09B60F9219BE0BB60F9289
:105950001BBE2F933F934F935F936F937F938F93D0
:105960009F93AF93BF93EF93FF93E091AE21F0919C
:10597000AF21309709F01995FF91EF91BF91AF9149
:105980009F918F917F916F915F914F913F912F9157
:105990000F900BBE0F9009BE0F9008BE0F900FBE68
:1059A0000F901F9018951F920F920FB60F9211240F
:1059B00008B60F9218BE09B60F9219BE0BB60F9219
:1059C0001BBE2F933F934F935F936F937F938F9360
:1059D0009F93AF93BF93EF93FF93E091B021F0912A
:1059E000B121309709F01995FF91EF91BF91AF91D7
:1059F0009F918F917F916F915F914F913F912F91E7
:105A00000F900BBE0F9009BE0F9008BE0F900FBEF7
:105A10000F901F9018951F920F920FB60F9211249E
:105A200008B60F9218BE09B60F9219BE0BB60F92A8
:105A30001BBE2F933F934F935F936F937F938F93EF
:105A40009F93AF93BF93EF93FF93E091B221F091B7
:105A5000B321309709F01995FF91EF91BF91AF9164
:105A60009F918F917F916F915F914F913F912F9176
:105A70000F900BBE0F9009BE0F9008BE0F900FBE87
:105A80000F901F9018951F920F920FB60F9211242E
:105A900008B60F9218BE09B60F9219BE0BB60F9238
:105AA0001BBE2F933F934F935F936F937F938F937F
:105AB0009F93AF93BF93EF93FF93E091B421F09145
:105AC000B521309709F01995FF91EF91BF91AF91F2
:105AD0009F918F917F916F915F914F913F912F9106
