:1000000043C3000087C3000085C3000083C3000012
:1000100081C300007FC3000034C4000065C4000039
:1000200096C40000C7C4000075C3000073C300007D
:1000300071C300006FC30000D6C500000CC60000ED
:1000400042C6000078C60000AEC60000E4C600004C
:100050001AC7000050C7000086C70000BCC70000D8
:1000600059C3000057C3000055C3000053C300002C
:1000700051C300004FC300004DC300004BC300003C
:1000800049C3000047C3000045C3000043C300004C
:1000900041C300003FC300003DC300003BC300005C
:1000A00039C3000037C3000035C3000033C300006C
:1000B00031C300002FC300002DC300000C94530A6D
:1000C0000C948B0A0C94C30A0C94FB0A0C94330B0B
:1000D0000C946B0B1FC300001DC300001BC300006A
:1000E00019C3000017C300000C945E3813C300004E
:1000F00011C300000FC300000DC300000BC30000BC
:1001000009C3000007C3000005C3000003C30000CB
:1001100001C30000FFC20000FDC20000FBC20000DE
:10012000F9C20000F7C20000F5C20000F3C20000EF
:10013000F1C2000088C70000BEC70000F4C700007D
:100140000C94CB080C9403090C943B090C94730990
:100150000C94AB090C94E3090C941B0ADBC200005D
:10016000D9C20000D7C20000D5C20000D3C200002F
:10017000D1C20000CFC20000CDC20000CBC200003F
:10018000C9C20000C7C20000C5C20000C3C200004F
:10019000C1C20000BFC20000BDC20000BBC200005F
:1001A000B9C20000B7C20000B5C20000B3C200006F
:1001B000B1C20000AFC20000ADC20000ABC200007F
:1001C000A9C20000A7C20000A5C20000A3C200008F
:1001D000A1C200009FC200009DC200009BC200009F
:1001E00099C2000097C2000095C2000093C20000AF
:1001F00091C200000C941B188DC200001913381313
:10020000FB133813FB1377138B13FB13D413DD137A
:1002100053266B268826A826C926DF26E926F82637
:1002200009271F2735274B276027B5316331B531A3
:1002300063313332B3337B320B33E937EE37F33785
:10024000F837C337AB37FC37CB37FC37FC37FC37D5
:100250008B3707634236B79BD8A71A39685618AE52
:10026000BAAB558C1D3CB7CC5763BD6DEDFD753EEB
:10027000F6177231BF000000803F05A84CCDB2D404
:100280004EB93836A9020C50B9918688083CA6AA06
:10029000AA2ABE000000803F08000000BE92244948
:1002A000123EABAAAA2ABECDCCCC4C3E00000080A8
:1002B000BEABAAAAAA3E00000000BF000000803F1B
:1002C0000000000000084178D3BB4387D1133D19DB
:1002D0000E3CC3BD4282AD2B3E68EC8276BED98F08
:1002E000E1A93E4C80EFFFBE01C4FF7F3F0000004C
:1002F00000000101020202020303040505060708CB
:100300000A0B0D0F1215181C21262C333C46515E8A
:100310006E7F0101010101010101010101020202DF
:1003200002020202020202020202020303030303A8
:100330000303030404040404040405050505050679
:1003400006060606070707080808080909090A0A31
:100350000B0B0B0C0C0D0D0E0E0F101011111213B8
:1003600014141516171819191A1C1D1E1F202123E5
:10037000242527282A2B2D2F31333537393B3D4073
:100380004245474A4D5053565A5D6164686C7175D9
:100390007A7F000000FF0000FF1500FF2200FF2E03
:1003A00000FF3B00FF4400FF5000FF5D00FF6A00BC
:1003B000FF7700FF7F00FF8C00FF9900FFA500FF83
:1003C000B200FFBF00FFC700FFD400FFE100FFEE57
:1003D00000FFFA00FAFF00EDFF00E1FF00D4FF008C
:1003E000C7FF00BFFF00B2FF00A5FF0099FF008C10
:1003F000FF007FFF0077FF006AFF005DFF0050FFF6
:100400000043FF003BFF002EFF0021FF0015FF000F
:1004100008FF0000FF0000FF0C00FF1900FF26008E
:10042000FF3300FF3F00FF4800FF5400FF6100FF63
:100430006E00FF7B00FF8300FF9000FF9D00FFAA7E
:1004400000FFB600FFBF00FFCB00FFD800FFE500B4
:10045000FFF200FFFF00F6FF00E9FF00DCFF00D025
:10046000FF00C3FF00BBFF00AEFF00A1FF0094FF31
:100470000087FF007FFF0072FF0066FF0059FF004A
:100480004CFF003FFF0037FF002AFF001DFF001058
:10049000FF0004FF0400FF1000FF1D00FF2A00FF03
:1004A0003700FF3F00FF4C00FF5900FF6600FF725E
:1004B00000FF7F00FF8700FF9400FFA100FFAE0058
:1004C000FFBA00FFC300FFD000FFDD00FFE900FF1F
:1004D000F600FFFF00FFFF00F2FF00E5FF00D8FF7E
:1004E00000CCFF00BFFF00B6FF00A9FF009DFF008A
:1004F00090FF0083FF007BFF006EFF0061FF00554F
:10050000FF0048FF003FFF0032FF0026FF0019E117
:10051000F0F00000000000000000000000000000FB
:1005200000007F0000007F0000007F0000007F00CF
:100530000000000000007F000000000000007F00BD
:10054000000000000000000000000055007F0000D7
:100550007F007F00005500006400006E00007F00F7
:1005600000001455007F00007F0000007F00002382
:100570005555557F7F0000006E7F640000000055D8
:10058000555555146E007F0A6414002D7F006E2DA2
:100590004B237F007F007F006E7F007F007F7F0006
:1005A0007F007F007F7F7F007F7F7F007F7F7F7F57
:1005B0007F7F557F647F557F557F557F557F6E7F49
:1005C000647F2A034D006900640069002000460032
:1005D0006900670068007400650072002000540024
:1005E00077006900730074006500720000001C034E
:1005F00044004A00200054006500630068002000A9
:1006000054006F006F006C007300000004030904C5
:1006100009026500020100C0320904000000010166
:100620000000092401000109000101090401000280
:10063000010300000724010001410006240201011A
:100640000006240202020009240301030102010042
:10065000092403020401010100090501024000050B
:100660000000052501010109058202400005000086
:100670000525010103120110010000000880250773
:10068000000100010200010011241FBECFEFCDBF09
:10069000DFE3DEBF00E00CBF18BE19BE1ABE1BBEF2
:1006A0008091780083FF1CC08091AD3A9091AE3A62
:1006B000A091AF3AB091B03A8A3C9C4AA244BC4D5A
:1006C00079F41092AD3A1092AE3A1092AF3A10927D
:1006D000B03A81E08CBFE0910020F09101201995A3
:1006E00010E2A0E0B0E2E8EBF1E900E00BBF02C0ED
:1006F00007900D92A435B107D9F71BBE2AE3A4E5F4
:10070000B0E201C01D92AD3AB207E1F70E94664324
:100710000C94DA4875CC2FB7F894FC01E059FF4FE0
:1007200060958081682360832FBF0895FC01128249
:1007300013824483440F415045836083718380E07A
:1007400090E00895EF92FF920F931F93CF93DF9362
:100750007C01EB018B01040F151FC017D10729F095
:100760006991C7010E94DB0CF8CF80E090E0DF9137
:10077000CF911F910F91FF90EF9008951BBEFC0148
:1007800028ED24BF608308950F931F93CF93DF93C9
:10079000E82FF0E0DF01519634E0AA0FBB1F3A9535
:1007A000E1F72091040160910301EF01249641E0FB
:1007B00050E08A01082E01C0000F0A94EAF70C2EBF
:1007C00001C0440F0A94EAF7402B642370E08B01C8
:1007D0000C2E02C0159507950A94E2F700FD1DC086
:1007E000082E02C0759567950A94E2F760FD18C05F
:1007F0004223242F30E0A90102C055954795CA95A0
:10080000E2F740FD10C0A90102C0559547958A95B1
:10081000E2F7CA018170992708C084E090E005C022
:1008200083E090E002C082E090E011962C91119755
:10083000206311962C93EE0FFF1FE555F24D0190AA
:10084000F081E02D309729F0DF91CF911F910F912A
:100850001994DF91CF911F910F91089561E080E08D
:1008600090E059DF9FB7F894E5EAFDE281818F5F60
:1008700081839FBFE0E0F1E080E4808380E88083B3
:1008800008951F920F920FB60F92112408B60F927F
:1008900018BE09B60F9219BE0BB60F921BBE2F934E
:1008A0003F934F935F936F937F938F939F93AF93F8
:1008B000BF93EF93FF9380E067DFFF91EF91BF91CC
:1008C000AF919F918F917F916F915F914F913F91E8
:1008D0002F910F900BBE0F9009BE0F9008BE0F9086
:1008E0000FBE0F901F9018951F920F920FB60F9288
:1008F000112408B60F9218BE09B60F9219BE0BB696
:100900000F921BBE2F933F934F935F936F937F93F1
:100910008F939F93AF93BF93EF93FF9381E034DF67
:10092000FF91EF91BF91AF919F918F917F916F91C7
:100930005F914F913F912F910F900BBE0F9009BE89
:100940000F9008BE0F900FBE0F901F9018951F922A
:100950000F920FB60F92112408B60F9218BE09B667
:100960000F9219BE0BB60F921BBE2F933F934F935E
:100970005F936F937F938F939F93AF93BF93EF9307
:10098000FF9382E001DFFF91EF91BF91AF919F91C3
:100990008F917F916F915F914F913F912F910F9028
:1009A0000BBE0F9009BE0F9008BE0F900FBE0F90A8
:1009B0001F9018951F920F920FB60F92112408B630
:1009C0000F9218BE09B60F9219BE0BB60F921BBE3E
:1009D0002F933F934F935F936F937F938F939F9347
:1009E000AF93BF93EF93FF9383E0CEDEFF91EF9140
:1009F000BF91AF919F918F917F916F915F914F9137
:100A00003F912F910F900BBE0F9009BE0F9008BE23
:100A10000F900FBE0F901F901895DB01E82FF0E0AC
:100A2000719684E0EE0FFF1F8A95E1F79FB7F89467
:100A300019968C91199784871A968C911A978587A5
:100A4000168617968C911797808718968C91189711
:100A50008187128612968C911297828313968C91BD
:100A60001397838314962D913C9115972483358396
:100A700016968C911697868311968C911197818387
:100A80008C918F7780839FBF08958091CF0187FDE0
:100A9000FCCF08951F93CF93DF93C0ECD1E01A856C
:100AA0008A8761E08BEC91E069DE1A87DF91CF9154
:100AB0001F910895CF93DF93EC01E7DFECECF1E0B9
:100AC000808188608083D05F88819081977F9083C8
:100AD000DF91CF910895CF92DF92EF92FF920F9323
:100AE0001F93CF93DF938C017B016A01CEDFCCECA7
:100AF000D1E0888188608883B801705FA601C70152
:100B00000E94CA488881877F8883DF91CF911F9197
:100B10000F91FF90EF90DF90CF900895B6DF809116
:100B2000CF0181FF07C086E38093CA0161E08BECAF
:100B300091E024CE0895CF93DF93C82FD62FA5DF61
:100B4000ACECB1E08C9188608C93EC2FF0E0F05F1E
:100B5000D0838C91877F8C93DF91CF910895EF9212
:100B6000FF920F931F93CF93DF93182FF92EE62E4A
:100B7000C0ECD1E00A85D2DF88DF6E2D812FDBDF6C
:100B80001A82F982188385E38A8761E08BEC91E011
:100B9000F5DD0A87DF91CF911F910F91FF90EF90C4
:100BA00008950F931F93CF938C016FDFC0E0F8017E
:100BB00061918F018C2FBFDFCF5FC032C1F7CF9122
:100BC0001F910F910895CF93C82F5FDF20E2C29F3E
:100BD000C0011124E0ECF1E012829183808385E36F
:100BE00090E0CF9157CF1F920F920FB60F92112422
:100BF00008B60F9218BE09B60F9219BE0BB60F9227
:100C00001BBE2F933F934F935F936F937F938F936D
:100C10009F93AF93BF93EF93FF93E0918620F09162
:100C20008720309709F01995FF91EF91BF91AF910F
:100C30009F918F917F916F915F914F913F912F91F4
:100C40000F900BBE0F9009BE0F9008BE0F900FBE05
:100C50000F901F9018951F920F920FB60F921124AC
:100C600008B60F9218BE09B60F9219BE0BB60F92B6
:100C70001BBE2F933F934F935F936F937F938F93FD
:100C80009F93AF93BF93EF93FF93E0918420F091F4
:100C90008520309709F01995FF91EF91BF91AF91A1
:100CA0009F918F917F916F915F914F913F912F9184
:100CB0000F900BBE0F9009BE0F9008BE0F900FBE95
:100CC0000F901F9018951F920F920FB60F9211243C
:100CD00008B60F9218BE09B60F9219BE0BB60F9246
:100CE0001BBE2F933F934F935F936F937F938F938D
:100CF0009F93AF93BF93EF93FF93E0918220F09186
:100D00008320309709F01995FF91EF91BF91AF9132
:100D10009F918F917F916F915F914F913F912F9113
:100D20000F900BBE0F9009BE0F9008BE0F900FBE24
:100D30000F901F9018951F920F920FB60F921124CB
:100D400008B60F9218BE09B60F9219BE0BB60F92D5
:100D50001BBE2F933F934F935F936F937F938F931C
:100D60009F93AF93BF93EF93FF93E0918020F09117
:100D70008120309709F01995FF91EF91BF91AF91C4
:100D80009F918F917F916F915F914F913F912F91A3
:100D90000F900BBE0F9009BE0F9008BE0F900FBEB4
:100DA0000F901F9018951F920F920FB60F9211245B
:100DB00008B60F9218BE09B60F9219BE0BB60F9265
:100DC0001BBE2F933F934F935F936F937F938F93AC
:100DD0009F93AF93BF93EF93FF93E0917E20F091A9
:100DE0007F20309709F01995FF91EF91BF91AF9156
:100DF0009F918F917F916F915F914F913F912F9133
:100E00000F900BBE0F9009BE0F9008BE0F900FBE43
:100E10000F901F9018951F920F920FB60F921124EA
:100E200008B60F9218BE09B60F9219BE0BB60F92F4
:100E30001BBE2F933F934F935F936F937F938F933B
:100E40009F93AF93BF93EF93FF93E0917C20F0913A
:100E50007D20309709F01995FF91EF91BF91AF91E7
:100E60009F918F917F916F915F914F913F912F91C2
:100E70000F900BBE0F9009BE0F9008BE0F900FBED3
:100E80000F901F9018951F920F920FB60F9211247A
:100E900008B60F9218BE09B60F9219BE0BB60F9284
:100EA0001BBE2F933F934F935F936F937F938F93CB
:100EB0009F93AF93BF93EF93FF93E0917A20F091CC
:100EC0007B20309709F01995FF91EF91BF91AF9179
:100ED0009F918F917F916F915F914F913F912F9152
:100EE0000F900BBE0F9009BE0F9008BE0F900FBE63
:100EF0000F901F9018951F920F920FB60F9211240A
:100F000008B60F9218BE09B60F9219BE0BB60F9213
:100F10001BBE2F933F934F935F936F937F938F935A
:100F20009F93AF93BF93EF93FF93E0917820F0915D
:100F30007920309709F01995FF91EF91BF91AF910A
:100F40009F918F917F916F915F914F913F912F91E1
:100F50000F900BBE0F9009BE0F9008BE0F900FBEF2
:100F60000F901F9018951F920F920FB60F92112499
:100F700008B60F9218BE09B60F9219BE0BB60F92A3
:100F80001BBE2F933F934F935F936F937F938F93EA
:100F90009F93AF93BF93EF93FF93E0917620F091EF
:100FA0007720309709F01995FF91EF91BF91AF919C
:100FB0009F918F917F916F915F914F913F912F9171
:100FC0000F900BBE0F9009BE0F9008BE0F900FBE82
:100FD0000F901F9018951F920F920FB60F92112429
:100FE00008B60F9218BE09B60F9219BE0BB60F9233
:100FF0001BBE2F933F934F935F936F937F938F937A
:101000009F93AF93BF93EF93FF93E0917420F09180
:101010007520309709F01995FF91EF91BF91AF912D
:101020009F918F917F916F915F914F913F912F9100
:101030000F900BBE0F9009BE0F9008BE0F900FBE11
:101040000F901F9018951F920F920FB60F921124B8
:1010500008B60F9218BE09B60F9219BE0BB60F92C2
:101060001BBE2F933F934F935F936F937F938F9309
:101070009F93AF93BF93EF93FF93E0917220F09112
:101080007320309709F01995FF91EF91BF91AF91BF
:101090009F918F917F916F915F914F913F912F9190
:1010A0000F900BBE0F9009BE0F9008BE0F900FBEA1
:1010B0000F901F9018951F920F920FB60F92112448
:1010C00008B60F9218BE09B60F9219BE0BB60F9252
:1010D0001BBE2F933F934F935F936F937F938F9399
:1010E0009F93AF93BF93EF93FF93E0917020F091A4
:1010F0007120309709F01995FF91EF91BF91AF9151
:101100009F918F917F916F915F914F913F912F911F
:101110000F900BBE0F9009BE0F9008BE0F900FBE30
:101120000F901F9018951F920F920FB60F921124D7
:1011300008B60F9218BE09B60F9219BE0BB60F92E1
:101140001BBE2F933F934F935F936F937F938F9328
:101150009F93AF93BF93EF93FF93E0916E20F09135
:101160006F20309709F01995FF91EF91BF91AF91E2
:101170009F918F917F916F915F914F913F912F91AF
:101180000F900BBE0F9009BE0F9008BE0F900FBEC0
:101190000F901F9018951F920F920FB60F92112467
:1011A00008B60F9218BE09B60F9219BE0BB60F9271
:1011B0001BBE2F933F934F935F936F937F938F93B8
:1011C0009F93AF93BF93EF93FF93E0916C20F091C7
:1011D0006D20309709F01995FF91EF91BF91AF9174
:1011E0009F918F917F916F915F914F913F912F913F
:1011F0000F900BBE0F9009BE0F9008BE0F900FBE50
:101200000F901F9018951F920F920FB60F921124F6
:1012100008B60F9218BE09B60F9219BE0BB60F9200
:101220001BBE2F933F934F935F936F937F938F9347
:101230009F93AF93BF93EF93FF93E0916A20F09158
:101240006B20309709F01995FF91EF91BF91AF9105
:101250009F918F917F916F915F914F913F912F91CE
:101260000F900BBE0F9009BE0F9008BE0F900FBEDF
:101270000F901F9018951F920F920FB60F92112486
:1012800008B60F9218BE09B60F9219BE0BB60F9290
:101290001BBE2F933F934F935F936F937F938F93D7
:1012A0009F93AF93BF93EF93FF93E0916820F091EA
:1012B0006920309709F01995FF91EF91BF91AF9197
:1012C0009F918F917F916F915F914F913F912F915E
:1012D0000F900BBE0F9009BE0F9008BE0F900FBE6F
:1012E0000F901F9018951F920F920FB60F92112416
:1012F00008B60F9218BE09B60F9219BE0BB60F9220
:101300001BBE2F933F934F935F936F937F938F9366
:101310009F93AF93BF93EF93FF93E0916620F0917B
:101320006720309709F01995FF91EF91BF91AF9128
:101330009F918F917F916F915F914F913F912F91ED
:101340000F900BBE0F9009BE0F9008BE0F900FBEFE
:101350000F901F9018951F920F920FB60F921124A5
:1013600008B60F9218BE09B60F9219BE0BB60F92AF
:101370001BBE2F933F934F935F936F937F938F93F6
:101380009F93AF93BF93EF93FF93E0916420F0910D
:101390006520309709F01995FF91EF91BF91AF91BA
:1013A0009F918F917F916F915F914F913F912F917D
:1013B0000F900BBE0F9009BE0F9008BE0F900FBE8E
:1013C0000F901F9018951F920F920FB60F92112435
:1013D00008B60F9218BE09B60F9219BE0BB60F923F
:1013E0001BBE2F933F934F935F936F937F938F9386
:1013F0009F93AF93BF93EF93FF93E0916220F0919F
:101400006320309709F01995FF91EF91BF91AF914B
:101410009F918F917F916F915F914F913F912F910C
:101420000F900BBE0F9009BE0F9008BE0F900FBE1D
:101430000F901F9018951F920F920FB60F921124C4
:1014400008B60F9218BE09B60F9219BE0BB60F92CE
:101450001BBE2F933F934F935F936F937F938F9315
:101460009F93AF93BF93EF93FF93E0916020F09130
:101470006120309709F01995FF91EF91BF91AF91DD
:101480009F918F917F916F915F914F913F912F919C
:101490000F900BBE0F9009BE0F9008BE0F900FBEAD
:1014A0000F901F9018951F920F920FB60F92112454
:1014B00008B60F9218BE09B60F9219BE0BB60F925E
:1014C0001BBE2F933F934F935F936F937F938F93A5
:1014D0009F93AF93BF93EF93FF93E0915E20F091C2
:1014E0005F20309709F01995FF91EF91BF91AF916F
:1014F0009F918F917F916F915F914F913F912F912C
:101500000F900BBE0F9009BE0F9008BE0F900FBE3C
:101510000F901F9018951F920F920FB60F921124E3
:1015200008B60F9218BE09B60F9219BE0BB60F92ED
:101530001BBE2F933F934F935F936F937F938F9334
:101540009F93AF93BF93EF93FF93E0915C20F09153
:101550005D20309709F01995FF91EF91BF91AF9100
:101560009F918F917F916F915F914F913F912F91BB
:101570000F900BBE0F9009BE0F9008BE0F900FBECC
:101580000F901F9018951F920F920FB60F92112473
:1015900008B60F9218BE09B60F9219BE0BB60F927D
:1015A0001BBE2F933F934F935F936F937F938F93C4
:1015B0009F93AF93BF93EF93FF93E0915A20F091E5
:1015C0005B20309709F01995FF91EF91BF91AF9192
:1015D0009F918F917F916F915F914F913F912F914B
:1015E0000F900BBE0F9009BE0F9008BE0F900FBE5C
:1015F0000F901F9018951F920F920FB60F92112403
:1016000008B60F9218BE09B60F9219BE0BB60F920C
:101610001BBE2F933F934F935F936F937F938F9353
:101620009F93AF93BF93EF93FF93E0915820F09176
:101630005920309709F01995FF91EF91BF91AF9123
:101640009F918F917F916F915F914F913F912F91DA
:101650000F900BBE0F9009BE0F9008BE0F900FBEEB
:101660000F901F9018951F920F920FB60F92112492
:1016700008B60F9218BE09B60F9219BE0BB60F929C
:101680001BBE2F933F934F935F936F937F938F93E3
:101690009F93AF93BF93EF93FF93E0915620F09108
:1016A0005720309709F01995FF91EF91BF91AF91B5
:1016B0009F918F917F916F915F914F913F912F916A
:1016C0000F900BBE0F9009BE0F9008BE0F900FBE7B
:1016D0000F901F9018951F920F920FB60F92112422
:1016E00008B60F9218BE09B60F9219BE0BB60F922C
:1016F0001BBE2F933F934F935F936F937F938F9373
:101700009F93AF93BF93EF93FF93E0915420F09199
:101710005520309709F01995FF91EF91BF91AF9146
:101720009F918F917F916F915F914F913F912F91F9
:101730000F900BBE0F9009BE0F9008BE0F900FBE0A
:101740000F901F901895CF93CFB7F894811528E08C
:10175000920711F461E005C0803428E0920749F453
:1017600062E083E090E00E948B0364E083E090E01D
:101770001EC0811529E0920711F461E005C0803494
:1017800029E0920749F462E084E090E00E948B0334
:1017900064E084E090E00BC081159A4091F461E030
:1017A00085E090E00E948B0364E085E090E00E9479
:1017B0008B039FB7F8948091A62D8F5F8093A62D01
:1017C0009FBFCFBFCF910895811528E0920729F4DC
:1017D00060938220709383200895803428E09207DC
:1017E00029F460937620709377200895811529E07D
:1017F000920729F460936E2070936F2008958034CF
:1018000029E0920729F46093622070936320089581
:1018100081159A4021F460935A2070935B200895BB
:10182000811528E0920729F460938020709381202D
:101830000895803428E0920729F46093742070930F
:1018400075200895811529E0920729F460936C2092
:1018500070936D200895803429E0920729F46093F5
:10186000602070936120089581159A4021F460935F
:101870005820709359200895009709F49BC0803C2C
:10188000910511F460E105C0811524E0920721F46F
:1018900064E080E090E08CC0803821E0920711F491
:1018A00062E0F7CF811521E0920711F461E0F1CFFA
:1018B000803823E0920711F461E005C0811522E031
:1018C000920721F462E081E090E072C0803223E070
:1018D000920721F464E082E090E06AC0811528E07C
:1018E000920711F461E05BC0811529E0920711F4C1
:1018F00061E04DC081152AE0920711F461E056C005
:10190000803428E0920711F462E049C0803429E075
:10191000920711F462E03BC0803928E0920711F48D
:1019200064E03DC0803929E0920711F464E02FC0E3
:1019300080392AE0920711F464E038C0803C28E046
:10194000920711F468E02BC0803C29E0920711F463
:1019500068E01DC0803A28E0920711F460E11FC0E2
:10196000803A29E0920711F460E111C0803A2AE040
:10197000920711F460E11AC0803B28E0920711F44D
:1019800060E20DC0803B29E0920721F460E284E030
:1019900090E00EC0803824E0920721F460E483E0F8
:1019A00090E006C0803A944029F460E485E090E03D
:1019B0000C948B030895FC01218125FFFCCF6083EB
:1019C00080E090E00895FC01218127FFFCCF808119
:1019D00008958F929F92AF92BF92CF92DF92EF9233
:1019E000FF920F931F93CF93DF93EC016A017B016A
:1019F000480159018C81B901A80182FF11C033E06F
:101A000076956795579547953A95D1F7D501C401D5
:101A1000E6E1B695A79597958795EA95D1F710C019
:101A200094E076956795579547959A95D1F7D901A2
:101A3000C80127E1B695A795979587952A95D1F77F
:101A40004C155D056E057F0508F498C0C816D906CB
:101A5000EA06FB0608F492C08C8182FD04C0CC0C1F
:101A6000DD1CEE1CFF1CC501B401A70196010E94FC
:101A7000834819EF8FEF90E0A0E0B0E02817390716
:101A80004A075B0758F0880F991FAA1FBB1F1D3F0D
:101A90000CF481601F5F173089F749C017FF47C0FA
:101AA000D701C601F3E0880F991FAA1FBB1FFA9543
:101AB000D1F7881A990AAA0ABB0A812F012E000CB5
:101AC000990B1E3FDCF42DEF3FEFA901481B590B8A
:101AD00004C0880C991CAA1CBB1C4A95D2F7D701DC
:101AE000C601B695A79597958795BC01CD01680D60
:101AF000791D8A1D9B1DA701960116C00396A7019B
:101B0000960104C0220F331F441F551F8A95D2F738
:101B1000DA01C901B695A79597958795BC01CD01C6
:101B2000680D791D8A1D9B1D0E9483481DC083E09E
:101B3000810FA701960104C0220F331F441F551FB8
:101B40008A95D2F7DA01C901B695A7959795879539
:101B5000BC01CD01680D791D8A1D9B1D0E94834823
:101B60002150310941095109932F9F70812F82958E
:101B7000807F892B8F832E8381E001C080E0DF91FD
:101B8000CF911F910F91FF90EF90DF90CF90BF907A
:101B9000AF909F908F9008950F931F93CF93DF93F3
:101BA000EC018B0169DE8D818F738D83F801948147
:101BB0008681982B8085811188E0892B8D83F8019F
:101BC000408151816281738100E018E428EE31E0A8
:101BD000CE01FFDE9C8198609C839C8190619C83F8
:101BE000DF91CF911F910F9108950F931F93CF9382
:101BF000DF93EC01D901C801369527951795079514
:101C0000401751076207730768F49A01AB01220F6E
:101C1000331F441F551FBC01CD010E948348215032
:101C2000310902C020E030E0832F8F708F832E8334
:101C3000DF91CF911F910F910895EF92FF920F9333
:101C40001F93CF93DF93EC017B0116DE8C818F7E97
:101C50008C83F70124812250C03AF8E0DF0731F489
:101C600080914E0684FD6BC011E11FC0C03B88E02F
:101C7000D80709F464C0C03AE9E0DE0731F4809186
:101C80006E0684FD5EC019E110C0C03BF9E0DF07BD
:101C900009F457C0C03A8AE0D80739F480918E061B
:101CA00084FD02C011E201C015E2E12FE695E69540
:101CB000E69580E2E89FF0011124FA5F177081E059
:101CC00090E001C0880F1A95EAF78183223010F066
:101CD00020E001C020E48093B000208B85838D81BB
:101CE000806C8D83F70184818D7F813019F48D8123
:101CF000826002C08D818D7F8D83F701858188236D
:101D000019F08D81846002C08D818B7F8D83F701F6
:101D1000408151816281738100E018E428EE31E056
:101D2000CE0163DF8C8188608C838C8180618C83A1
:101D3000DF91CF911F910F91FF90EF90089515E1E2
:101D4000B4CF1DE1B2CF8091820080FDFCCF089519
:101D500090918000880F880F682F6C73927091604B
:101D6000692B80E890E00E94BE03EDCF6091800077
:101D70006C7F616080E890E00C94BE03609180000D
:101D80006C73636080E890E00E94BE03DCCF63E088
:101D900080E890E00E94BE03D6DF6BE281E890E02D
:101DA0000E94BE03D0DFA895FFCF8F929F92AF9283
:101DB000BF92CF92DF92EF92FF920F931F93CF9338
:101DC000DF93CDB7DEB7C055D109CDBFDEBF8330BD
:101DD00008F448C1FB0190810181911159C08630FE
:101DE00008F440C1002309F43DC19281992309F40C
:101DF00039C1248130E090E00497281739070CF0AE
:101E000031C1602F70E0615071096B0154E0D594CD
:101E1000C7945A95E1F76F707727AE014F5F5F4F18
:101E20008FE0DA011D928A95E9F7CA018E01005F01
:101E30001F4F70E8F72EDC01FD92CD01A017B1070E
:101E4000D1F7359690E0890101501109292F30E032
:101E500020173107B4F42E0F3F1FD9012C912A50BF
:101E60002F3068F4DA01A20FB11D9D0181E0890FC6
:101E70007F01E80EF11CD7018C91D9018C939E5FF4
:101E8000E5CF8C2D0E94E62D0E94273AA895EAC046
:101E9000913009F0E7C0E02FF0E09F0121503109B7
:101EA000C90160E170E00E94704837FF02C0215F05
:101EB0003F4F44E0359527954A95E1F7AE014E5BDB
:101EC0005F4F682F822F0E9484288AE08CA323967C
:101ED0008FAD23978DA38BE08EA324968FAD24978F
:101EE0008FA38CE088A725968FAD259789A78DE0D5
:101EF0008AA726968FAD26978F5F8BA78EE08CA73B
:101F000027968FAD27978DA78FE08EA71FA680E11C
:101F100088AB29968FAD29978F5F89AB81E18AAB1A
:101F20002A968FAD2A978BAB82E18CAB2B968FAD27
:101F30002B978DAB83E18EAB2C968FAD2C978FAB0F
:101F400084E188AF2D968FAD2D9789AF85E18AAF5B
:101F50002E968FAD2E978BAF86E18CAF2F968FADDF
:101F60002F978DAF87E18EAF60968FAD60978FAF63
:101F700088E121968FAF219761968FAD6197229668
:101F80008FAF22978FEF800F803410F0F12C02C0BA
:101F90003EE1F32E8F2D68E10E944348DD24D39467
:101FA000D80EC12CEE24E39480EFB82EAA24A3947B
:101FB00099E7992E24E0822E17EF8F2DB8E1BF15F7
:101FC00008F488E198EEF90EB9821A82AB829C82FD
:101FD0008D821E820F83E886D9868A871B871C879D
:101FE0001D871E871F87188B198B1A8B1B8B1C8BC9
:101FF0001D8B1E8B1F8B188F198F1A8F1B8F1C8F99
:102000001D8F1E8F1F8F18A319A31AA31BA39AE05D
:10201000482F50E0475F5F4F292F30E042175307AA
:102020008CF0A1E0B0E0AC0FBD1FA20FB31FE4E243
:10203000F0E0EC0FFD1FEC0DF11D60816C939F5FD4
:10204000C394EACFBE016F5F7F4F855F0E94123756
:1020500080915E3A90915F3A55D2A895E394DE1450
:1020600008F0ABCFC05BDF4FCDBFDEBFDF91CF91BC
:102070001F910F91FF90EF90DF90CF90BF90AF90A6
:102080009F908F900895DC0190E050E041505109FD
:10209000292F30E024173507F4F481E0890FFB0184
:1020A000E20FF31F20812A3048F4FB01E80FF11DF5
:1020B0008081FD01E20FF11D80830BC02F3148F0BC
:1020C000FB01E80FF11D8081FD01E20FF11D759705
:1020D00080839E5FDDCF0895CF93DF93CDB7DEB7CA
:1020E0006F97CDBFDEBFF8940E943026FC01789434
:1020F00080EF89831A8281E08B8399E79C8322E0B9
:102100002D838E831F8290917A319F5F9887898774
:1021100084858A872B8780818C8783E08D87828165
:102120008E8784E08F878481888B85E0898B868188
:102130008A8B86E08B8B80858C8B87E08D8B82856C
:102140008E8B88E08F8B80917931888F89E0898FA1
:10215000809172318A8F8FE18B8F8091B32D8C8F1C
:1021600080E28D8F809178318E8F87EF8F8FBE01C7
:102170006F5F7F4F8FE10E9412376F96CDBFDEBF3A
:10218000DF91CF910895882329F0FB01808181118F
:1021900001C0A2CF0895CF93DF93CDB7DEB72D97BF
:1021A000CDBFDEBFF89481E090E00E945A05809395
:1021B0007A3183E090E00E945A0591E0811101C0DC
:1021C00090E09D8784E090E00E945A0590E089832A
:1021D0009A8385E090E00E945A0590E08B839C836F
:1021E00086E090E00E945A0590E08D839E8387E010
:1021F00090E00E945A0590E08F83988788E090E0F5
:102200000E945A0590E089879A8789E090E00E94B1
:102210005A0590E08B879C878AE090E00E945A05DF
:10222000809379318BE090E00E945A05809372315F
:102230008CE090E00E945A058093B32D8DE090E0F1
:102240000E945A0580937831CE0101960E9405269E
:1022500078942D96CDBFDEBFDF91CF910895FF9288
:102260000F931F93CF93DF93CDB7DEB72C97CDBFDE
:10227000DEBFF82E8B017ADDCE0101962CE0FC0149
:1022800011922A95E9F74F2DB801FDDE6981615061
:1022900081E090E00E94AF056A8183E090E00E94B7
:1022A000AF056B8184E090E00E94AF056C8185E012
:1022B00090E00E94AF056D8186E090E00E94AF053E
:1022C0006E8187E090E00E94AF056F8188E090E02A
:1022D0000E94AF05688589E090E00E94AF0569859E
:1022E0008AE090E00E94AF056A858BE090E00E9452
:1022F000AF056B858CE090E00E94AF056C858DE0AA
:1023000090E00E94AF0560E07FEF80E090E00E94E7
:10231000FA3E41DF0E94DD28DFDE0E9409302C9664
:10232000CDBFDEBFDF91CF911F910F91FF90089538
:10233000F89467E080E090E00E94AF0563E081E000
:1023400090E00E94AF0561E083E090E00E94AF055D
:1023500060E084E090E00E94AF0567E085E090E0F7
:102360000E94AF0560E086E090E00E94AF0560E06B
:1023700087E090E00E94AF0566E088E090E00E9470
:10238000AF0560E089E090E00E94AF056FE38AE06E
:1023900090E00E94AF056FE78BE090E00E94AF05F0
:1023A0006FE78CE090E00E94AF056FE78DE090E072
:1023B0000E94AF0578940C946929882369F1FB0188
:1023C0008081813019F0823069F00895CFDCC1D569
:1023D0002FEF8FE493EC215080409040E1F700C054
:1023E000000037C0C3DCA4DF87E08093A2006FEF5A
:1023F0007FEF80E090E00E94FA3EABD52FEF8FE4B4
:1024000093EC215080409040E1F700C0000081E053
:1024100090E09EDCB3DCFFCF08956FE271E181E0D4
:102420000E949F2463EC70E182E00E949F246DED86
:1024300071E183E00E949F2465ED7EE084E00E94CC
:102440009F2480E090E00E945A05873009F070CF09
:1024500008957FD5F89480E02FEF3FE891E0215078
:1024600030409040E1F700C000008F5F8038A1F756
:102470008AEC9CEAA2E4BCED8093AD3A9093AE3A2C
:10248000A093AF3AB093B03A82CCCF93DF93EC01F4
:102490001B8682E08C83898761E0CE01019691D40E
:1024A000882331F061E0CE010696DF91CF9189C497
:1024B00080E0DF91CF910895CF93DF9320918B310E
:1024C0002430D1F4EB01FC0181818AD340E050E05B
:1024D00064E070E0CE01AED1811111C080919431E1
:1024E00090919531FC01EF5BFF4F20813197808106
:1024F000281720F02DD302C082E001C080E0DF91D8
:10250000CF91089520918B312430E9F4FC01818131
:1025100067D3809198312091943130919531F901B0
:1025200087FF05C0EF5BFF4F808190E008C0E05C53
:10253000FF4F80813196208190E0821B9109892B89
:1025400021F006D3C7C482E0089580E00895CF93B8
:10255000DF9320918B31243051F4EC01898140D3F9
:1025600074D3882321F0CE01DF91CF91CBCFDF91BF
:10257000CF9108950F931F93CF9320918B312430E7
:1025800011F0C0E027C08B01FC01868129D369D3FB
:10259000C82F8823B1F38091943190919531FC013B
:1025A000EF5BFF4F208131978081281750F740E083
:1025B00050E064E070E0C8018AD18091943190913C
:1025C0009531FC01EF5BFF4F208131978081281707
:1025D00008F0D7D28C2FCF911F910F9108950F93B0
:1025E0001F93CF93DF93CDB7DEB7EA97CDBFDEBFA2
:1025F0000CE811E3D5D2F80181938F01F1E304399E
:102600001F07C1F70E94244446D3882309F4F3C06E
:1026100090918C3120918D31422F50E04A305105FC
:1026200008F0E9C0FA018827E250FF4F8F4F0C9461
:10263000C148903891F0923809F0DDC08091903116
:102640008F70CED2E0919631F0919731118112FBCB
:10265000112710F980E0C4D206C010918831809112
:1026600089318111126031D3812FAAD280E0A1C0BB
:10267000892F8D7F09F0BFC0992319F0923061F046
:10268000BAC080918E31813009F0B5C0233009F095
:1026900080E08093893127C080918E31811123C0E1
:1026A000E09190311E2F1F7009F4A5C0812F98D2A0
:1026B00080918D31833011F434D315C0E09196317F
:1026C000F091973181818B7F818324E8129FF00103
:1026D0001124E652FE4C1082E0919631F091973130
:1026E00080818E7F808380E07BD2EFD264C09111A5
:1026F00082C010918E311F77E8D2D6D3A6D288231C
:10270000E9F31093C304111102C082E001C083E019
:1027100080938B3170C09058923008F06CC08091DB
:102720008E3190918F318C3DE3E09E0761F583E01F
:102730008A838AE389834FB7F894DE01139620E0F9
:1027400038E052E05093CA01E32FF0E0E491109298
:10275000CA0120FF03C0E295EF703F5FEF708E2F3C
:1027600090E0EA3010F0C79601C0C0968D939D931B
:102770002F5F2C3139F74FBFA8D26AE370E0CE014A
:102780000196F2D00FC0AE014F5F5F4F6091903164
:102790000E9416398C01892B71F197D2B801898179
:1027A0009A815BD1EED127C0903829F58ED28091E5
:1027B000873106D2CDD178D31EC091111CC0809133
:1027C0008E3190918F3199270297ACF47ED280910F
:1027D0008E318093873168D380918731811106C013
:1027E0008091C304811102C081E001C084E0809324
:1027F0008B310E940A444FD2882311F066D291D2C5
:10280000EA96CDBFDEBFDF91CF911F910F91089562
:102810000895CF9380918B31882351F0C0919831E6
:1028200080E0DED138D28111DADE8C2FCF91D8C191
:10283000CF910895CF92DF92EF92FF920F931F9363
:10284000CF93DF93EC018B017A0144D3811136C021
:10285000E114F10439F0F70180819181081B190B13
:10286000C80FD91FC12CD12C0115110531F1809150
:10287000943190919531FC01EF5BFF4F20813197AE
:102880008081281790F064D1C4DFE114F10449F08D
:10289000F70180819181C80ED91EC082D18285E066
:1028A0000DC018D3882301F309C0899189D1015043
:1028B0001109FFEFCF1ADF0AD7CF80E0DF91CF9168
:1028C0001F910F91FF90EF90DF90CF900895CF92DE
:1028D000DF92EF92FF920F931F93CF93DF93EC0160
:1028E0008B017A01F7D2811136C0E114F10439F07D
:1028F000F70180819181081B190BC80FD91FC12CCA
:10290000D12C0115110531F18091943190919531BF
:10291000FC01EF5BFF4F208131978081281790F0F9
:1029200030D177DFE114F10449F0F7018081918122
:10293000C80ED91EC082D18285E00DC0CBD28823BB
:1029400001F309C02DD1899301501109FFEFCF1A6E
:10295000DF0AD7CF80E0DF91CF911F910F91FF90D9
:10296000EF90DF90CF900895DF92EF92FF920F9358
:102970001F93CF93DF93D82FC92F8B01809198316C
:1029800080682ED180919231909193318017910778
:1029900028F00115110519F4DBD001C08C01ED2ED2
:1029A000FC2ED12C0115110509F43EC080918B310C
:1029B000811102C082E049C0853011F483E045C036
:1029C0006AD1811141C04DD1811139C03ED18823D6
:1029D00049F3209198318091943190919531FC0187
:1029E00027FF05C0EF5BFF4FC081D0E013C0E05C64
:1029F000FF4FC08131968081D0E0C81BD1090AC049
:102A0000C830D10550F4F70181917F01D9D0015030
:102A1000110921960115110599F7DD24D394289702
:102A200009F0D12C95D0BECFD110C0CF08C0809175
:102A30008B31882309F4BECF853009F4BFCF11D183
:102A40008823A9F380E001C081E0DF91CF911F913D
:102A50000F91FF90EF90DF900895DF92EF92FF9239
:102A60000F931F93CF93DF93D82FC92F8B018091A2
:102A700098318068B5D080919231909193318017D0
:102A8000910728F00115110519F462D001C08C01DD
:102A9000ED2EFC2ED12C0115110509F440C08091BA
:102AA0008B31811102C082E04BC0853011F483E08C
:102AB00047C0F1D0811143C0D4D081113BC0C5D0F3
:102AC000882349F3209198318091943190919531E8
:102AD000FC0127FF05C0EF5BFF4FC081D0E015C0B0
:102AE000E05CFF4FC08131968081D0E0C81BD109E6
:102AF0000CC0C830D10560F4F701849161D0FFEFBC
:102B0000EF1AFF0A0150110921960115110589F7E5
:102B1000DD24D394289709F0D12C1AD0BCCFD11042
:102B2000BECF08C080918B31882309F4BCCF85309B
:102B300009F4BDCF96D08823A9F380E001C081E0DD
:102B4000DF91CF911F910F91FF90EF90DF9008954B
:102B5000E0919631F0919731A0919431B0919531F7
:102B6000AF5BBF4F8C9190E08283938380818D799E
:102B70008083E0919431F0919531EF5BFF4F1082AB
:102B80000895E0919631F091973180818D7980831D
:102B9000E0919431F0919531EF5BFF4F10820895F1
:102BA0008091943190919531FC01EF5BFF4F208132
:102BB00031E0320F3083FC01E20FF11D8081089576
:102BC0002091943130919531F901EF5BFF4F908165
:102BD00041E0490F4083F901E90FF11D8083089519
:102BE00080939831482F4F7050E06091C6047091E7
:102BF000C7049A0194E0220F331F9A95E1F7E4E8A5
:102C000087FF11C0E49FC001E59F900D11248552FC
:102C10009E4C8093943190939531C90108969B0105
:102C2000280F391F0DC0E49FC001E59F900D1124AE
:102C300087569E4C8093943190939531260F371F81
:102C40002093963130939731089580919831806820
:102C5000C7DFE0919631F091973180818695817040
:102C60000895809198318F77BBDFA0919631B09114
:102C700097318C9185FF0DC0E0919431F0919531A1
:102C800012968D919C911397E05CFF4F808381E0B9
:102C9000089580E00895809198318F77A1DFA09109
:102CA0009631B09197318C9184FF0DC0E0919431B1
:102CB000F091953112968D919C911397E05CFF4FA6
:102CC000808381E0089580E00895809198318F7726
:102CD00087DFE0919631F091973180818D78808304
:102CE000E0919631F0919731808181608083E0910D
:102CF0009431F0919531EF5BFF4F108280919831C4
:102D000080686EDFE0919631F0919731808181602B
:102D10008083E0919431F0919531EF5BFF4F108209
:102D20000895E0919631F09197318181846081839B
:102D3000E0919631F09197318181807C803459F413
:102D40008091983180584CDFE0919631F091973125
:102D500081818460818308951F93CF93DF93C82F6F
:102D6000162FD42F3DDFE0919631F09197311182EB
:102D7000E0919631F09197318C2F881F8827881F1A
:102D8000880F8083E0919631F09197311183E09123
:102D90009631F091973112821382209194313091C3
:102DA000953124833583CC0FCC0BCD23F901E05C26
:102DB000FF4FC0833196108281E0DF91CF911F9148
:102DC0000895CF92DF92EF92FF920F931F93CF93CC
:102DD000DF93C62E8C01D12CDC1409F43FC0F8011E
:102DE000D081D11104C0D3940B5F1F4FF5CFF801F0
:102DF000E180F28093818481823010F488E001C008
:102E000088E128E030E0C0E02E153F0520F4CF5FD8
:102E1000220F331FF9CFC82B8D2F8F70833010F006
:102E200080E01DC0CF7EF1E4EF16F104C8F79923CE
:102E300021F0913021F4C06C0AC0C06403C0C068A6
:102E4000911105C04E2D6C2F80E88D0F85DF4E2D22
:102E50006C2F8D2F81DF8111C6CFE2CF81E0DF9112
:102E6000CF911F910F91FF90EF90DF90CF90089539
:102E700080E090E0E091C604F091C7049C0144E03A
:102E8000220F331F4A95E1F7E20FF31F118640919D
:102E9000C6045091C704FA01E20FF31F1182019694
:102EA0008330910539F7089580918C3187FF0DC0EB
:102EB000D8DE811105C080918B318111F9CF09C015
:102EC00060CE80918B31882321F0BFDE8823C9F347
:102ED0003FCE08950F931F93CF93E091C604F091D6
:102EE000C70400A911A9C4E68091983187FF0AC0E0
:102EF000ACDE811105C080918B31811105C020C0ED
:102F000080E023C0AEDEF5CF8530E1F0E091963170
:102F1000F0919731818182FD17C0E091C604F09154
:102F2000C70480A991A90817190711F48C01DCCFF7
:102F30002FEF2C0FCC2311F0C22FF8CF84E005C067
:102F400082E003C083E001C081E0CF911F910F9127
:102F5000089564D06AD0E0ECF4E081818E7F8183B3
:102F600080818F77808310928A310895CF93DF9389
:102F7000E0E4F0E014828481836084834FD055D0F4
:102F8000C0ECD4E088818F778883888180688883CB
:102F900010928B31109287311092893110928831C2
:102FA00088818064888348E068E480E8D5DE48E072
:102FB00068E480E0D1DE88858064888789818160CB
:102FC0008983DF91CF910895CF93DF932FB7F89442
:102FD000C0ECD1E082E08A87EAE1F0E0E491A0EC85
:102FE000B4E0DA96EC93DA97EBE1F0E0E491DB966B
:102FF000EC93DB971A8686E293E38E7F16968D9389
:103000009C93179782E18C9383E018968C932FBF43
:1030100081E080938A31DF91CF91A8CFE0ECF4E09A
:1030200080858370808711860895E0ECF4E08FEF4F
:103030008287848708951F920F920FB60F921124F2
:1030400008B60F9218BE09B60F9219BE0BB60F92B2
:103050001BBE2F933F934F935F936F937F938F93F9
:103060009F93AF93BF93EF93FF938091CA0486FF22
:1030700007C080E48093CA0485E080938B31C8DB6D
:103080008091CA0485FF13C080E28093CA048091B6
:103090008731882311F084E007C08091C304811137
:1030A00002C081E001C083E080938B31B1DB80916D
:1030B000CA0484FF14C080E18093CA0482E0809334
:1030C0008B31109287311092C304D2DE48E068E45D
:1030D00080E842DE48E068E480E03EDE99DBFF9174
:1030E000EF91BF91AF919F918F917F916F915F9180
:1030F0004F913F912F910F900BBE0F9009BE0F90F3
:1031000008BE0F900FBE0F901F90189581E0089594
:1031100080915A33882349F00E94CC36BC017695C1
:10312000679585EA98E10C9455420E94CC36BC0123
:10313000660F771F860F971FBC017695679576956A
:10314000679585EA98E10C9455422F923F924F92F1
:103150005F926F927F928F929F92AF92BF92CF9227
:10316000DF92EF92FF920F931F93CF93DF938091A3
:10317000583390915933029709F0ABC06090892081
:103180008FEF860D8F3F09F48FE0482E512C2DE5EF
:10319000A22E23E3B22E00E411E334EBE32E3DE252
:1031A000F32E43E7C42E41E3D42E54E2252E712C96
:1031B0006FE7862E912C960123573143F60131900B
:1031C0006F01330C330C320CF50181915F0199E0F2
:1031D000980F9331B0F01816A4F46AE00E944F489B
:1031E00084300CF083E0E82FF0E0E95BFF4D809144
:1031F000892060810E94434891111BC0CFE7D0E035
:103200001AC0F70180819CE0929FF001939FF00D1E
:103210001124E80FF11D94E0EE0FFF1F9A95E1F7DE
:10322000E05DF14DE60DF71DC081CC2311F0D0E03B
:1032300002C0C0E0D0E0F70181917F019CE0929F45
:10324000F001939FF00D1124E80FF11D84E0EE0FC3
:10325000FF1F8A95E1F7E05DF14DE40DF51D8081DA
:10326000882331F02FE740E0632D87E00E940D387E
:103270002097B9F0F80126812C9FC0012D9F900D59
:103280001124B4010E945C48C62F262F41E0632D13
:1032900087E00E940D384C2F66EE620D87E00E9499
:1032A00039382394085F1F4FF8E22F1284CF8091A2
:1032B0005E3A90915F3A26D9809189208F5F803164
:1032C00019F08093892005C01092892081E08093B5
:1032D0008820DF91CF911F910F91FF90EF90DF90A9
:1032E000CF90BF90AF909F908F907F906F905F90A6
:1032F0004F903F902F900895BF92CF92DF92EF9220
:10330000FF920F931F93CF93DF9363E771E3C4EBB7
:10331000DDE2A0E4B1E340E050E08FE3C82E9FE798
:10332000D92EFB011192BF0180E090E020E030E057
:103330008C01040F151FFC01E20FF31FEE5EFA4F24
:10334000B4907801E20EF31EF701E05DF14DB0821A
:103350002F5F3F4F2031310571F74096803C91053A
:1033600029F7199215961C9215971796CC921797D4
:1033700014961C9214971696DC92169711961C922E
:103380001197189640545F4F4115F3E05F0749F6D7
:103390001092863180E2E0E0FEE2DF011D928A9524
:1033A000E9F780E1E2E6F1E3DF011D928A95E9F7B2
:1033B00084E0E0E2FEE2DF011D928A95E9F7B2D4F3
:1033C000A0E0BEE2E2E6F1E384E06CE978E13FE30D
:1033D0004CE951E32FE71D921C92119710825896E9
:1033E0006D937C935997348750964D935C93519786
:1033F0009FE720878150129631968111ECCF9093F0
:103400005B33109290209093912010925C33109235
:103410006031109261318AE58093773110925A338E
:103420001092583310925933DF91CF911F910F9121
:10343000FF90EF90DF90CF90BF9008958091583328
:1034400090915933892B59F481E090E0809358335F
:10345000909359334FE76EE087E00C94393810921F
:103460005833109259331092892040E06EE087E083
:103470000C943938109289200895CF9320915833B5
:10348000309159332130310551F4811129C082E046
:1034900090E08093583390935933CF9156CE223099
:1034A0003105F1F4C82F0E94D536882389F08C2F7E
:1034B000CC0F990B029666E070E00E947048892B51
:1034C00079F461E070E088E898E1CF910C9455427E
:1034D0008C2F66E00E944F48911102C0CF9135CEEB
:1034E000CF91089590E0FC01EC54F24D20813CE036
:1034F000389FF001399FF00D1124E20FF11D84E097
:10350000EE0FFF1F8A95E1F7E05DF14DE60FF11D2B
:103510008081089590E0FC01EC54F24D20813CE064
:10352000389FF001399FF00D1124E20FF11D84E066
:10353000EE0FFF1F8A95E1F7E05DF14DE60FF11DFB
:1035400040830895E82FF0E0ED58FE4C6083089525
:10355000E82FF0E0ED58FE4C808108954FE76FE0D2
:1035600087E00E94393840E06FE087E00C943938FA
:103570009CEE980F9430B8F498E0899FF0011124E4
:10358000E056FF4C81E0611180E0848380916031DE
:1035900090916131019709F083C00E94FB25049747
:1035A00009F07EC097C098EE980F943098F498E098
:1035B000899FF0011124E058FF4C81E0611101C0A6
:1035C00080E085838091603190916131019709F0AD
:1035D00067C0E3CF9AE9980F9031C0F590E0865626
:1035E00091099C012370332795958795959587952B
:1035F00053E0220F331F5A95E1F7F901E05CFE4CCE
:1036000082309105B9F083309105D1F0019731F006
:1036100081E0611101C080E08083089581E0611143
:1036200001C080E081838091603190916131019788
:10363000B9F5B3CF81E0611101C080E082830895C4
:1036400081E0611101C080E0838308958F3079F4B7
:1036500080910220882321F181E080935A3384E015
:1036600090E00E940026A7D11092022077CF8E30E2
:10367000B9F4662369F08091583390915933892BBE
:1036800079F481E090E08093583390935933089512
:10369000109258331092593310928920109288203A
:1036A00008958430A0F09CEF980F943050F098EF7C
:1036B000980F943048F08C50843048F483E090E0C8
:1036C000089581E090E0089582E090E0089580E020
:1036D00090E008952F923F924F925F926F927F9267
:1036E0008F929F92BF92CF92DF92EF92FF920F93B1
:1036F0001F93CF93DF9300D01F92CDB7DEB7E09139
:10370000B32DF0E0EE5EFC4FE491E0917831F0E013
:10371000EE5EFC4FE49180E491E38B839C8390E028
:10372000C92E9EE2D92E24EB422E2DE2522E498242
:103730005A8238E0B32E4CE0242E312C812C50E8F4
:10374000952E66EF662E64E0762EEB81FC818481F7
:1037500081110DC0E091B32DF0E0EE5EFC4FF490CE
:10376000E0917831F0E0EE5EFC4F149103C08AE006
:10377000F82E1AE0EB81FC818181882331F04F2DF6
:1037800068E7832D0E94E23C04C060E0832D0E9424
:10379000F53C832DDDDEB40102C0769567958A95F0
:1037A000E2F7412F832D0E94C03C832DD1DEF82FFC
:1037B000F69DC001F79D900D1124F6018083918341
:1037C000F201B401019002C0769567950A94E2F780
:1037D0002F01412F84E0830D0E94C03CE981FA81D2
:1037E0002191E983FA83269DC001279D900D112424
:1037F000F60180879187EB81FC818481811106C06D
:103800004F2D61E08B2D0E94E23C04C060E08B2DC7
:103810000E94F53CE12E00E021E030E040E0EB8149
:10382000FC8166818B2D0E94A53BEB81FC8186810A
:10383000F4E68F9FC0011124F601808B918BEB8100
:10384000FC818581882331F04F2D6FE0822D0E940D
:10385000E23C04C060E0822D0E94F53CE12E0EE7C0
:1038600021E030E041E0EB81FC816781822D0E9404
:10387000A53BEB81FC818781F4E68F9FC001112479
:10388000F601808F918F33948B819C8108968B8376
:103890009C83239492E0C90ED11CB394E4E03E12C1
:1038A00054CF2496CDBFDEBFDF91CF911F910F91F2
:1038B000FF90EF90DF90CF90BF909F908F907F9080
:1038C0006F905F904F903F902F9008958F929F92AE
:1038D000AF92BF92CF92DF92EF92FF920F93CF936E
:1038E00049D24C0190E0C92E9EE2D92EC0E0EE24D0
:1038F000E394F12C3CE9A32E31E3B32EC4018E21D5
:103900009F21892B29F06EE38C2F0E94F53C04C087
:1039100060E08C2F0E94F53C00E021E030E040E0C8
:1039200060E08C2F0E94253CF601A192B1926F01BC
:10393000EE0CFF1CCF5FC03109F7CF910F91FF90C4
:10394000EF90DF90CF90BF90AF909F908F900895B1
:10395000EF92FF920F93CF93DF9380E0E82E8EE2F9
:10396000F82EC0E06C2F80918631BCDDD82F8823E3
:1039700029F06AE08C2F0E94F53C04C060E08C2F97
:103980000E94F53C00E021E030E040E06D2F8C2FFC
:103990000E94253C24E6D29FC0011124F7018193A7
:1039A00091937F01CF5FC031E9F6DF91CF910F9105
:1039B000FF90EF9008958091603190916131823055
:1039C000910531F08330910521F0019719F482CEF1
:1039D0007DCFBECF0895DF92EF92FF920F931F939A
:1039E000CF93DF93182FC82FD0E0FE01EE59FE4C85
:1039F000D080E091B32DF0E0EE5EFC4FF490E091CA
:103A00007831F0E0EE5EFC4F04914BDE81309105A1
:103A100039F140F08230910509F48CC0039709F424
:103A2000A0C0B5C053E0CC0FDD1F5A95E1F7C05CD4
:103A3000DE4C8C8181110AE0812F8ADD60E070E824
:103A400002C0769567958A95E2F7402F812FDF9126
:103A5000CF911F910F91FF90EF90DF900C94C03C9D
:103A60009E0124503109E90143E0CC0FDD1F4A9546
:103A7000E1F7FE01E05CFE4C848181110AE0F9016E
:103A8000E35AFC4C8081882381F06AE00E944F4811
:103A9000A82FB0E0AA0FBB1FA55BBF4D6D917C9115
:103AA000402F812F0E94C03C0FC0F901EC54F24D11
:103AB00060E070E8008002C0769567950A94E2F7AE
:103AC000402F812F0E94C03C00918920002311F0DB
:103AD000015001C00FE0602F8CEF810F03DD8823C0
:103AE000F1F0C05CDE4C8C81882311F02AE0F22ECC
:103AF0000E94D5364F2D882381F0011102C06DE35D
:103B000002C060917731812FDF91CF911F910F918A
:103B1000FF90EF90DF900C94E23C60E5F4CF60E022
:103B2000812FDF91CF911F910F91FF90EF90DF9048
:103B30000C94F53C93E0CC0FDD1F9A95E1F7C05053
:103B4000DF4C8C81882311F08AE001C08FE7E82EDA
:103B500000E022E030E040E06D2D812F0E94A53B87
:103B600016C083E0CC0FDD1F8A95E1F7C052DF4C11
:103B70008C81882311F08AE001C08FE7E82E0EE7E0
:103B800022E030E041E06D2D812F0E94A53BDF91C6
:103B9000CF911F910F91FF90EF90DF900895CF93F9
:103BA000DF93D82FC0918920CC2311F0C15001C0E0
:103BB000CFE08091583390915933029761F5CD133E
:103BC00018C0609177318C2F0E94F53CCC2311F006
:103BD000C15001C0CFE06C2F8091863183DC811110
:103BE00002C060E001C06AE08C2FDF91CF910C949D
:103BF000F53C6D2F8091863175DC882331F06AE0C9
:103C00008D2FDF91CF910C94F53C60E08D2FDF91EB
:103C1000CF910C94F53CD111ECCF6091773180E0DD
:103C20000E94F53CCFE0D7CF4091892090918A2027
:103C30004917B1F130910320303190F5381330C07D
:103C400080915B336AE10E944348E4E0F0E0E81BC6
:103C5000F109EE5BFF4D2081842F622F0E944348C3
:103C6000492F9C30C8F4215080E090E8BC0102C08C
:103C7000769567952A95E2F780E090E8AFEFBFEF81
:103C800004C0B695A795979587954A95D2F7682B66
:103C9000792B832F0E94DB3C8091892080938A209E
:103CA00008950F9380918C2090E0209160313091A5
:103CB00061318217930709F07EDE80916031909127
:103CC000613180938C2081309105C9F048F08230B9
:103CD0009105C9F00397D1F480918B2060DF16C065
:103CE00000E020E030E040E060E080918B200E9426
:103CF000253C60E580918B200E94F53C07C08091B7
:103D00008B2069DE03C080918B208EDF80918B2019
:103D10008F5F803118F480938B2002C010928B202B
:103D20000F9108950F931F93CF93DF9310928E20DE
:103D300010928F2001E010E0CDE0D4E0CE010E948F
:103D40005A05853A51F480918E2090918F20802BD6
:103D5000912B80938E2090938F20000F111FC05CB9
:103D6000DF4FCD3088E0D80749F7DF91CF911F9121
:103D70000F91089580918E2090918F200895F8944E
:103D800021E030E0082E02C0220F331F0A94E2F730
:103D90002095309540918E2050918F2024233523FB
:103DA00020938E2030938F2020E4829FC001112425
:103DB0006FEF835F9B4F0E94AF05789408956F92D9
:103DC0007F928F929F92AF92BF92CF92DF92EF92AB
:103DD000FF920F931F93CF93DF93CDB7DEB7A097DA
:103DE000CDBFDEBFC82E0E94B60E8E010F5F1F4FE3
:103DF00080E2D8011D928A95E9F7DC2CDD0C2FE1D9
:103E0000622E6D0CE12C48015401F12C6F2D8E2D8A
:103E100069DB782E61E06F0D8E2D64DB76947694ED
:103E20007694729490EF79228695869586958F7018
:103E30008729F50181935F01F394F394F0E1FF1278
:103E4000E5CF88E0880E911CE394A4E0EA12DCCF71
:103E5000C8010E94D105862D0E94E3057801480122
:103E6000B12C8B2D75DBF40181934F01B394F4E0F9
:103E7000BF12F7CF60E471E39E01275F3F4FFB0164
:103E800085818795882787959781892BD7011496F7
:103E90008C93149784818795882787959681892BA1
:103EA00015968C933896B2E0EB0EF11CE216F306F1
:103EB00039F740E651E391E080E0FB0121812223C4
:103EC00011F0292F01C020E0822B990F685F7F4FEE
:103ED0004617570791F78F708D8785EA8E8781E0A7
:103EE00090E002C0880F991FCA94E2F720918E20BB
:103EF00030918F20822B932B80938E2090938F2054
:103F0000C8010E94D10580E28D0D0E94E3050E9448
:103F1000BE0EA096CDBFDEBFDF91CF911F910F9156
:103F2000FF90EF90DF90CF90BF90AF909F908F90D9
:103F30007F906F9008959F92AF92BF92CF92DF9241
:103F4000EF92FF920F931F93CF93DF9320E4829F12
:103F5000C0011124EC01C052DC4F94EBA92E9DE26C
:103F6000B92E6E0100E0F50111925F01C601912C9E
:103F70007C01FFEFEF1AFF0A0E945A05182F482F05
:103F800042954F70440F440F440F692D802FC2DAC1
:103F9000412F4F70440F440F440F61E0690D802F93
:103FA000B9DA93949394C70120E19212E1CF88E0AB
:103FB000C80ED11C0F5F0430B1F6CE01809610E020
:103FC0007C01EFEFEE1AFE0A0E945A05682F812F3E
:103FD000B9DA1F5FC701143099F76E01F4E2CF0E12
:103FE000D11C00E411E384E1F82EC6010E945A05B9
:103FF0008F77F80187835601FFEFAF1ABF0AC6011A
:104000000E945A05881F8827881FF8019581891703
:1040100031F04FE764E06F0D87E00E943938C50149
:104020000E945A058F77F8018683F2E0CF0ED11CEB
:10403000C5010E945A05881F8827881FF8019481AE
:10404000891729F04FE76F2D87E00E943938085F04
:104050001F4FF394F8E1FF12C8CFCE018C960E9457
:104060005A05082FCAE6D1E01FE741E0802F8D23D3
:1040700009F440E0419F402D11246C2F87E00E94FD
:104080003938DD0FCF5FCE3681F7DF91CF911F91A9
:104090000F91FF90EF90DF90CF90BF90AF909F90E7
:1040A0000895EF92FF920F931F93CF93C82F162F6F
:1040B00080916031909161318230910509F474C032
:1040C0008330910509F4B9C0019709F0E8C08C2F3D
:1040D000E8DA8130910529F140F08230910509F448
:1040E0003CC0039709F449C0DAC0112309F4D7C0D2
:1040F00028E0C29FF0011124E05CFE4C418181E088
:10410000482741838FE7489F402D11246AE66C0FB2
:1041100087E00E943938CF911F910F91FF90EF9067
:10412000D9CA1111BCC0EC2FF0E0EE0FFF1FE75A07
:10413000FC4C80819181803D974050F4C450C093E5
:10414000863183E090E08093603190936131A7C025
:10415000C1DA8FE780935B33A2C0112309F49FC0BB
:1041600088E0C89FF0011124E050FF4C848188232F
:1041700081F06CE06C0F4FE70FC0112309F48FC082
:1041800028E0C29FF0011124E052FF4C8581882372
:1041900081F36CE06C0F4FE387E0CF911F910F919B
:1041A000FF90EF900C943938662309F478C0809121
:1041B0009220882351F08C2FE2DD80910320C813D8
:1041C00036C081E18093032032C00C2F10E081E0E3
:1041D00090E00C2E02C0880F991F0A94E2F72091FC
:1041E0008E2030918F2082239323000F111F892B63
:1041F00081F08C2FA0DEC0930320F801E050F24D37
:104200008081918164E670E00E945C4860935B333A
:104210000EC08C2FD4DDC0930320F801E050F24D86
:104220008CE991E3808391838FE780935B33CF9117
:104230001F910F91FF90EF9049CB662381F16C2F76
:10424000809186314FD9EC2EF12C00E021E030E056
:1042500040E081110FC06FE78C2F0E94253CF701D1
:10426000EE0FFF1FE050F24D8CE991E380839183C4
:104270004FE70CC060E08C2F0E94253CF701EE0F49
:10428000FF1FE050F24D1082118240E06C2F8091B0
:104290008631CF911F910F91FF90EF903BC9CF9145
:1042A0001F910F91FF90EF9008952F923F924F92A0
:1042B0005F926F927F928F929F92AF92BF92CF92B6
:1042C000DF92EF92FF920F931F93CF93DF93CDB7BF
:1042D000DEB72597CDBFDEBF0E94894299E5C92E82
:1042E00093E3D92E29E5A22E23E3B22E32E6832EC4
:1042F00031E3932E47EE442E40E3542E80EB9DE2B3
:104300008A839B83E0E0FEE2EC83FD8354E1E52EAB
:104310005EE2F52E712C22242394312C872D0E94ED
:1043200082428983082F880F110B0115110509F4AA
:1043300047C184EF870D843038F5809160319091CA
:104340006131019709F5EC81FD81808191810E94A5
:10435000832D8823C9F0F7018081F9818F0FF70140
:1043600080838B303CF084E699E1EC81FD81808391
:10437000918388C0863F0CF085C088E398E1EC818A
:10438000FD81808391837EC0EC81FD81808191815C
:104390000E948C2DEC81FD81208131818823A1F147
:1043A0002436310520F4101611063CF00CC02933D8
:1043B000F1E33F0740F017FF06C0F7018485F9815C
:1043C0008F0FF7018487F701848584306CF02436E1
:1043D000310508F057C084E690E0EC81FD818083D0
:1043E0009183F70114864EC08D3F0CF04BC02933EA
:1043F000314308F447C088E391E3EC81FD81808379
:104400009183F70114863EC0F3E0F71588F08091A0
:10441000603190916131019771F4498180E54802E2
:10442000200D311D1124EC81FD812083318320C0BA
:10443000F7E0F71588F08091603190916131019734
:1044400059F4498184E64802200D311D1124EC8184
:10445000FD81208331830CC0F2EBF09FC001F19FFE
:10446000900D1124280F391FEC81FD8120833183A9
:10447000EC81FD81808191810E94762DEC81FD810E
:1044800080839183EC81FD81808191810E946F2DD9
:10449000682E80916031909161318130910509F0F1
:1044A00075C0872DFED88130910531F190F08230B2
:1044B000910509F466C0039709F082C0F201608299
:1044C000F4016082462D60E1670D87E00E94393873
:1044D00077C0662D70E080E090E00E94C4442DEC2F
:1044E0003CEC48E351E40E9429440E949644872D05
:1044F00029D8F401608264C0F6018081918100971F
:1045000061F1FEE4F09F9001F19F300D301B11240A
:10451000EC81FD8140815181240F351F208331833F
:1045200017FF03C0119501951109F4E6F09F900162
:10453000F19F300D1124820F931FF6018083918328
:10454000F5018081F9818F0F88321CF4F501808399
:1045500037C047E2F501408333C0662D70E080E04C
:1045600090E00E94C4442DEC3CEC48E351E40E94EE
:1045700029440E949644EA81FB816083F4016082B1
:104580001FC0F201678EF40160821AC0833091056A
:1045900079F4462D672D809186310E948A1A00E0B9
:1045A00021E030E040E0662D872D0E94253C08C0C8
:1045B000029731F480910320871102C060925B332F
:1045C0000E94B84282219321892B21F061E0872D3E
:1045D00068DD09C00E94BD4282219321892B19F018
:1045E00060E0872D5EDD8CEF870D843088F40E94BB
:1045F000B34282219321F601892B31F08081918190
:1046000001968083918304C010821182F50110828B
:10461000220C331C7394F2E0CF0ED11C4FEFA41A7E
:10462000B40A8FEF881A980A98E0490E511CEA8163
:10463000FB813196EA83FB838C819D8102968C837A
:104640009D839FEFE91AF90AE0E17E1267CE259675
:10465000CDBFDEBFDF91CF911F910F91FF90EF9003
:10466000DF90CF90BF90AF909F908F907F906F9092
:104670005F904F903F902F900895CF92DF92EF92EE
:10468000FF920F931F93CF93882309F442C0809128
:104690009220882361F081E090E0B2D2CF911F9107
:1046A0000F91FF90EF90DF90CF900C94093081E054
:1046B0008093922008EB1DE294EBC92E9DE2D92E47
:1046C000C0E08C2F0E94A81AF8018083F601819126
:1046D0006F01F8018183E12CF12C6E2D8C2F0E944B
:1046E000721AF801EE0DFF1D8283FFEFEF1AFF0A29
:1046F00080E1E816F10489F7CF5F0E5E1F4FC430EA
:1047000001F7CF911F910F91FF90EF90DF90CF9025
:1047100008951092922008EB1DE284EBC82E8DE2E2
:10472000D82EC0E0F80160818C2F0E94A21AF801F7
:104730008181F60181936F01E12CF12CF801EE0DDE
:10474000FF1D42816E2D8C2F0E948A1AFFEFEF1AF7
:10475000FF0A80E1E816F10489F7CF5F0E5E1F4F74
:10476000C43001F7CF911F910F91FF90EF90DF9030
:10477000CF900C946A1BDF92EF92FF920F931F93DE
:10478000CF93DF9380915A33882339F08091603141
:1047900090916131892B09F466C00E94C242D82EE3
:1047A000C0E0D1E002E010E0EE24E394F12C80912F
:1047B0008D209D2D98279D2361F08D2389F4C33092
:1047C00009F44AC0C0F4C130C1F0C23059F00E94AF
:1047D0003A1ADD0FCF5FC63051F7D0928D2043C01B
:1047E000C23019F40E94AE1AF4CFC330B8F4C1300D
:1047F00081F780E003C0C430B9F481E020916031DA
:10480000309161312130310539F08111E2CFE092F0
:104810006031F0926131DDCF30DFDBCFC43049F35E
:10482000C530B9F680E003C0C53089F681E020913B
:104830006031309161312230310549F4882321F013
:1048400081E080939220C5CF10929220C2CF009336
:10485000603110936131BDCF809192208111B9CF29
:104860000E941E1AB6CFDF91CF911F910F91FF903A
:10487000EF90DF900895CF93DF93CDB7DEB76397C6
:10488000CDBFDEBF8B8B80919320909194200497B5
:1048900069F58B89882351F18091693389838981F6
:1048A000882309F444C08981893008F040C0898197
:1048B000882F90E00197880F991F8B569F4DFC0120
:1048C00080819181892B99F18981882F90E00197CE
:1048D000880F991F8B569F4DFC01208131818B8958
:1048E00081506AE673E3F901199521C08091932004
:1048F000909194200397E1F48B898230C8F08091E5
:1049000069338630A9F480916A33813089F481E17A
:10491000E9E2F0E2DE01129601900D928A95E1F74C
:10492000CE010296BC0181E10E94123701C0000055
:1049300000006396CDBFDEBFDF91CF9108959FEF5A
:10494000980F983040F4E82FF0E0EE0FFF1FED567F
:10495000FF4D608371830895FC018091A520811132
:1049600029C081E08093A52089E693E38093A62067
:104970009093A7208181803F39F582818E3771F431
:10498000838190911B20891711F08F37E9F483E020
:1049900090E080939320909394200895811114C007
:1049A0008381813089F481E090E08093932090931B
:1049B00094200895809193209091942081309105C6
:1049C000F1F48181893739F082E090E0809393207F
:1049D000909394200895A091A620B091A720CD0196
:1049E000029620910420309105208217930760F7EA
:1049F00084E090E080939320909394201AC00297D3
:104A000061F1A091A620B091A720CD01039620913D
:104A100004203091052082179307B0F60297809307
:104A2000A6209093A72081818C93A091A620B0917D
:104A3000A720CD0101968093A6209093A720828184
:104A40008C93A091A620B091A720CD0101968093D0
:104A5000A6209093A72083818C930895FC01109247
:104A6000A520809193209091942081309105C1F4EC
:104A70008181893709F049C0A091A620B091A72073
:104A8000CD010296209104203091052082179307D2
:104A9000E0F584E090E080939320909394201AC0F6
:104AA000029799F1A091A620B091A720CD0103967D
:104AB00020910420309105208217930730F502974A
:104AC0008093A6209093A72081818C93A091A6200B
:104AD000B091A720CD0101968093A6209093A720A6
:104AE00082818C93A091A620B091A720CD01019640
:104AF0008093A6209093A72083818C938091A620F9
:104B00009091A72089569343B6DE1092932010927D
:104B1000942008952091A5202223B9F11092A52078
:104B200020919320309194202230310551F1A091B1
:104B3000A620B091A7209D012E5F3F4F40910420F9
:104B40005091052024173507E0F4FC01CD010196B2
:104B50008093A6209093A72081818C93A091A6207A
:104B6000B091A720CD0101968093A6209093A72015
:104B700082818C938091A6209091A720895693439F
:104B80007ADE109293201092942008952091A5200F
:104B9000222349F11092A520209193203091942056
:104BA00022303105E1F0A091A620B091A7209D010F
:104BB0002F5F3F4F40910420509105202417350767
:104BC00070F4FC012093A6203093A72081818C9360
:104BD0008091A6209091A720895693434CDE109295
:104BE0009320109294200895EBEAF0E21082118253
:104BF0001282138208958091A9209091AA2008958D
:104C00008093A9209093AA200895DC011C968C9192
:104C10001C97EFEAF0E284878D919C911197808335
:104C2000918312968D919C9113978283938314960E
:104C30008D919C9115978483958316968D919C9167
:104C400017978683978318968D919C9119978087E3
:104C500091871A968D919C911B97828793870895CF
:104C60008FEA90E208951F93CF93DF93182FEB0103
:104C70008091BB20882319F02FD7982F01C090E096
:104C8000E12FF0E0EE0FFF1FE155FF4D0190F081A5
:104C9000E02DED30F10508F031C18827E85FFE4FC7
:104CA0008F4F0C94C148C130D10549F468E0610FC1
:104CB000292F220F920F990F690F4FE718C1CD2BA3
:104CC00009F01CC1892F880F980F990F68E0610FB8
:104CD000690F40E00CC1C130D10509F00FC1012EB0
:104CE00001C0CC0F0A94EAF7E92FF0E0E555FF4D3B
:104CF00080818C278083C82311F440E001C04FE7F6
:104D0000892F880F980F990F68E0610F690FEFC026
:104D1000C130D10551F468E0610F292F220F920FA5
:104D2000990F690F2FE741E00CC0CD2B09F0E6C0C9
:104D3000892F880F980F990F68E0610F690F20E0A5
:104D400040E080917A31DF91CF911F910C940D3822
:104D5000C130D10509F0D2C0012E01C0CC0F0A9498
:104D6000EAF7E92FF0E0E555FF4D80818C2780833D
:104D7000C82311F420E001C02FE741E0C11101C0B8
:104D800040E0692F660F960F990F68E0610F690F79
:104D9000D8CFC130D10539F482E090E08093A920CA
:104DA0009093AA20ABC0CD2B09F0A8C00E94093077
:104DB00081E090E08093A9209093AA209FC0C13009
:104DC000D10589F783E090E08093A9209093AA20F1
:104DD00095C0219709F092C07FD6833008F08EC02D
:104DE0007BD640E0682F80917A310E94393878C0B4
:104DF000219709F083C070D6882309F47FC06CD650
:104E000040E0682F80917A310E94393865D6815010
:104E100069C0219709F072C05FD640E0682F809189
:104E20007A310E9439384FE760E080917A310E94F0
:104E3000393880E0DF91CF911F910C949B2F2197FF
:104E400009F05CC049D640E0682F80917A310E9419
:104E500039384FE761E080917A310E94393881E03A
:104E6000DF91CF911F910C949B2F219709F046C0A1
:104E700033D640E0682F80917A310E9439384FE76D
:104E800062E080917A310E94393882E0DF91CF91DF
:104E90001F910C949B2F219789F51ED640E0682F17
:104EA00080917A310E9439384FE763E080917A31FE
:104EB0000E94393883E0DF91CF911F910C949B2F92
:104EC0002197E1F409D640E0682F80917A310E9461
:104ED000393802D6833021F480E00E949B2F04C031
:104EE000FBD58F5F0E949B2FF7D54FE7682F8091EE
:104EF0007A31DF91CF911F910C943938DF91CF91A6
:104F00001F9108950F931F93CF93DF930E94C24286
:104F1000E3D50E94054382719927429791F48091CD
:104F2000A8208271823011F08031B9F584E090E0E0
:104F30008093A9209093AA200E94DB1C1092A820A5
:104F40002CC0C0E0D1E00E9409430D2F10E0802367
:104F50009123892B29F061E070E08C2F84DE15C04D
:104F60000E940D4380239123892B29F060E070E09B
:104F70008C2F79DE0AC00E94054380239123892B60
:104F800021F062E070E08C2F6EDEDD0FCF5FC63067
:104F9000D1F60E9405438093A820DF91CF911F9105
:104FA0000F9108958F929F92AF92BF92FF920F93AD
:104FB0001F93CF93DF93082F10E09FE0899FE001BC
:104FC0001124C855DA4C8885813009F057C0F62E77
:104FD000462F6F818E810E9439388D85882309F490
:104FE0006EC0C0917931FC1608F469C0D0E06091C0
:104FF000723170E06C1B7D0B072E000C880B990B37
:105000000E94C44420E030E04EEF52E40E94294464
:105010009B01AC0160E070E080E89FE30E942944BE
:105020004B015C016F2D70E06C1B7D0B072E000C9B
:10503000880B990B0E94C4449B01AC01C501B401CB
:105040000E94D4450E9496444B015C0180915E3AD7
:1050500090915F3A0E948212A4014038510510F0ED
:105060004FE750E08FE0809FF001819FF00D112409
:10507000E855FA4C6781605C868116C081110FC0CB
:10508000262F41E06F818E81DF91CF911F910F918B
:10509000FF90BF90AF909F908F900C940D3882300E
:1050A00071F4462F6F818E81DF91CF911F910F9107
:1050B000FF90BF90AF909F908F900C943938DF9104
:1050C000CF911F910F91FF90BF90AF909F908F90C5
:1050D00008959FE0989FD0011124A855BA4C969F3F
:1050E000F0011124E855FA4C17969C911797878187
:1050F000981308C018969C918085981303C081E08E
:10510000923009F480E008950F931F93CF93DF93BB
:10511000CDB7DEB72897CDBFDEBF262F8A01F89422
:1051200030E8839FC0011124809648E050E0BE0122
:105130006F5F7F4FE8E02E9F800D911D11240E942C
:105140006B0578948981982F9F70F801928315825E
:1051500082958F7083838A818F7784838B81818707
:105160008C8182878D81982F9F779387881F8827CE
:10517000881F80838E81982F93709487982F96959F
:1051800096959370918382958F7086878F81982FE3
:105190009370908782958F7086838885982F9F77EC
:1051A0009783881F8827881F85872896CDBFDEBFF5
:1051B000DF91CF911F910F910895AF92BF92CF923F
:1051C000DF92EF92FF920F931F93CF93DF93C8EA82
:1051D000D5E37E0110E0612F6F70A701812F8295CA
:1051E0008F7092DF1F5F8FE0E80EF11C103499F78B
:1051F0009CE6A92E99E3B92E23E2E22EF12C670159
:1052000000E010E0C6010E945A05F501E00FF11F11
:10521000808388E0C80ED11C0F5F1F4F003111053D
:1052200089F780E8E80EF11C80E1A80EB11C83E24A
:10523000E81682E0F80619F71092483A1092493AB7
:1052400010924A3A10924B3A10924C3A10924D3AC0
:1052500010924E3A10924F3AE09120210E2E000CFF
:10526000FF0BACEAB9E31D9289E3AC3BB807D9F771
:10527000EE0FFF1FE85BF54C10821182E8E6F4E3C5
:1052800028EE34E38CE998E14881DF01A058BF4F54
:10529000442329F0808391838D939C9304C01082D2
:1052A00011821D921C922F9632962E173F0761F79E
:1052B00088E080931F2182E080931E21DF91CF91AF
:1052C0001F910F91FF90EF90DF90CF90BF90AF9024
:1052D0000895DF92EF92FF920F931F93CF93DF9386
:1052E000CDB7DEB7A897CDBFDEBF80913A209091B1
:1052F0003B20A0913C20B0913D208DA39EA3AFA365
:10530000B8A780913E2090913F20A0914020B0917D
:10531000412089A39AA3ABA3BCA38E010F5F1F4FAB
:1053200080E2F80111928A95E9F7F80180E050E1F6
:105330009FE74FE332E421E050838183928393839C
:1053400044833583268387838F5F38968430A1F723
:1053500080E07E01F1E2EF0EF11CDD24D394D80E43
:105360008695869590E0E5E2F0E0EC0FFD1FE80FF2
:10537000F91F2081F701E80FF91F80812B838C83AF
:105380002B878C872B8B8C8B2B8F8C8FF894C80161
:105390000E94D1058D2D0E94E3057894F80181814A
:1053A0008C5F818387818C5F87833896EE15FF053C
:1053B000B1F78D2D803189F6A896CDBFDEBFDF9184
:1053C000CF911F910F91FF90EF90DF900895BF92C2
:1053D000CF92DF92EF92FF920F931F93CF93DF93C1
:1053E000C82F0E9489428C2F8295807FDCE2D80FE3
:1053F0003CE3B32EB80EEE24E394F12C0C2F10E016
:10540000000F111FC8018859964C6C01045C154CA3
:105410000E94B8428E219F21892BB1F02FE741E0F5
:105420006D2F80917A310E940D38F6018081918133
:105430008E219F21892B31F5F801808191818E2960
:105440009F29808391831EC00E94BD428E219F218F
:10545000892BC1F020E040E06D2F80917A310E94CD
:105460000D38F601808191818E219F21892B51F485
:10547000F80120813181C701809590958223932383
:1054800080839183EE0CFF1CDF5FBD12C1CF809142
:10549000BD20EC2FF0E0EE0FFF1FE45CF54C21E0A7
:1054A00030E0082E02C0220F331F0A94E2F7408139
:1054B00051812423352360E0232B61F00E94F53CC9
:1054C00000E021E030E040E06FE78091BD200E94E5
:1054D000253C0BC00E94F53C00E021E030E040E0BC
:1054E00060E08091BD200E94253C8091BD208F5FAF
:1054F000803118F48093BD2002C01092BD20DF914E
:10550000CF911F910F91FF90EF90DF90CF90BF90C0
:1055100008954F925F926F927F92BF92CF92DF92E7
:10552000EF92FF920F931F93CF93DF93CDB7DEB728
:105530002A97CDBFDEBF8B01C82ED12C8FE08C9D6A
:10554000F0018D9DF00D1124E855FA4CEE2011F07C
:10555000B68401C0B6808FE08C9DF0018D9DF00D6A
:105560001124E855FA4C8085813009F07FC0222350
:10557000F9F090EF99831A828B8389E78C8386E018
:105580008D83BE8287818F83CA0180789F73880F45
:10559000892F881F990B919588874F77498787EFC7
:1055A0008A87BE016F5F7F4F8AE00E94123705C075
:1055B000402F67818B2D0E9439388FE08C9DF00140
:1055C0008D9DF00D1124E855FA4C8585882309F44A
:1055D00055C0E0907931F12C0E151F0508F44EC02E
:1055E0006091723170E06E197F09072E000C880BF4
:1055F000990B0E94C44420E030E04EEF52E40E9438
:1056000029449B01AC0160E070E080E89FE30E94C8
:1056100029442B013C01B8016E197F0980E090E01C
:105620000E94C2449B01AC01C301B2010E94D44557
:105630000E9496442B013C0180915E3A90915F3A22
:105640000E948212A2014038510510F04FE750E04D
:105650008FE08C9DF0018D9DF00D1124E855FA4CE2
:105660006781605C8B2D0E94393808C0811106C0AB
:10567000202F41E067818B2D0E940D382A96CDBFE7
:10568000DEBFDF91CF911F910F91FF90EF90DF90E0
:10569000CF90BF907F906F905F904F900895E62FCE
:1056A000322F603468F5009719F0019721F00895C2
:1056B000642F8E2F77CC70E08FE0689FF00111246B
:1056C000E855FA4C8281823030F09AEF980F923090
:1056D00010F0843061F48FE0869FF001879FF00D19
:1056E0001124E855FA4C648183810C943938825036
:1056F000823030F4242F432F648183810C940D3841
:105700000895282F22952F70782F7F7030E0A72FD3
:10571000B0E061112BC0F901EE0FFF1FE05BF54C0B
:1057200081E090E002C0880F991F7A95E2F780959A
:105730009095408151818423952380839183F90141
:1057400064E0EE0FFF1F6A95E1F7E459F64CEA0FAB
:10575000FB1F2FE02A9FC0012B9F900D1124DC011D
:10576000A855BA4C1A968C91808308959FEF960F96
:10577000F901EE0FFF1FE05BF54C9D37C8F481E0A7
:1057800090E002C0880F991F7A95E2F7408151811D
:10579000842B952B80839183F90124E0EE0FFF1F6A
:1057A0002A95E1F7E459F64CEA0FFB1F6083089550
:1057B00041E050E002C0440F551F7A95E2F7608146
:1057C0007181462B572B4083518394E0220F331F66
:1057D0009A95E1F72459364CA20FB31F9FE0899F99
:1057E000F0011124E855FA4C81858C930895E82F37
:1057F000E295EF70F0E08F7090E0611103C020E05F
:1058000030E002C02FE730E044E0EE0FFF1F4A9582
:10581000E1F7E80FF91FEE0FFF1FE454F64C208369
:1058200031830895982F882329F081E0913320F067
:105830009F3711F080E008950895982F813328F064
:1058400081E0913620F09F3711F080E008950895AF
:1058500070E020E1829FC0011124FC01E851FC4C62
:10586000E60FF71F208188599A4CFC01E60FF71FBD
:1058700090811216A4F4191694F4213310F02F37E6
:1058800031F481E0913350F09F3749F409C021365B
:1058900030F4915381E0903318F001C0089580E016
:1058A0000895CF92DF92EF92FF920F931F93CF93C1
:1058B000DF93909120218091BC20282F30E0F901C6
:1058C00040E19402E00DF11D1124E85DFB4CC08124
:1058D000182F40E1949F100D1124F901E25FFE4D55
:1058E0009081C917B9F09FE0199FF0011124E85584
:1058F000FA4C248530E041E09081911101C040E0F4
:1059000003856C2F0E94253CE091BC20F0E0E25F13
:10591000FE4DC0838091BC20282F30E09091202143
:10592000F90140E19402E00DF11D1124E459F64C17
:10593000C081F901E250FF4D9081C91749F06C2FE9
:105940000E94F53CE091BC20F0E0E250FF4DC083A6
:1059500060912021D090BC20ED2CF12C80E16802D8
:10596000E0011124FE01E859FA4CEE0DFF1D008103
:10597000002381F0C459D64CCE0DDF1D2881402F65
:105980008D2D0E94403DE091BC20F0E0E251FF4DA2
:10599000008333C0F701E251FF4D0081002369F11C
:1059A000802F40DF882349F0C459D64CCE0DDF1D2F
:1059B00068818D2D0E94F53C1AC0802F3EDF882320
:1059C000B1F09FE0199FF0011124E855FA4C2485AD
:1059D00030E041E08081811101C040E0C85DDB4CD6
:1059E000CE0DDF1D038568818D2D0E94253CE09141
:1059F000BC20F0E0E251FF4D1082D090BC20C0905E
:105A000020216D2D8C2D24DF811153C0ED2CF12C24
:105A10004C2D80E14802E0011124FE01E851FC4CCC
:105A2000EE0DFF1D0081002389F0C459D64CCE0D28
:105A3000DF1D2881402F6C2D8D2D0E94403DE0916F
:105A4000BC20F0E0E252FF4D008333C0F701E25288
:105A5000FF4D0081002369F1802FE4DE882349F0A7
:105A6000C459D64CCE0DDF1D68818D2D0E94F53CAA
:105A70001AC0802FE2DE8823B1F09FE0199FF00169
:105A80001124E855FA4C248530E041E080818111F1
:105A900001C040E0C85DDB4CCE0DDF1D0385688191
:105AA0008D2D0E94253CE091BC20F0E0E252FF4D9C
:105AB00010828091BC208F5F803118F48093BC20CD
:105AC00002C01092BC20DF91CF911F910F91FF90E7
:105AD000EF90DF90CF900895809120210895C29695
